:100000000C9434000C9451000C9451000C94510049
:100010000C9451000C9451000C9451000C9451001C
:100020000C9451000C9451000C9451000C9451000C
:100030000C9451000C9451000C9451000C945100FC
:100040000C94EE000C9451000C9451000C9451004F
:100050000C9451000C9451000C9451000C945100DC
:100060000C9451000C94510011241FBECFEFD8E026
:10007000DEBFCDBF11E0A0E0B1E0E6E0F3E002C0FA
:1000800005900D92AA30B107D9F711E0AAE0B1E0CE
:1000900001C01D92A031B107E1F70E9453000C94FA
:1000A00081010C94000084EF91E00E945A000E94AC
:1000B0001B01FFCF8F929F92BF92CF92DF92EF9260
:1000C000FF920F931F93DF93CF93CDB7DEB72A979D
:1000D0000FB6F894DEBF0FBECDBF4C01DE01119606
:1000E000E0E0F1E08AE001900D928150E1F79401A7
:1000F00040E050E060E07BE187EB90E00E9444014B
:10010000B22EC32ED42E052F7E010894E11CF11CC3
:10011000C901DA019C01AD0110E013C0F701219182
:1001200031917F0140E050E06B2D7C2D8D2D902F83
:100130000E944401C901DA019C01AD011F5F153025
:1001400031F02F3F31054105510509F03CF7812F72
:10015000815014BC15BC10926E0015BA17BC18BCA7
:1001600016BC17BC882311F481E00FC0813011F454
:1001700082E00BC0823011F483E007C0833011F4B9
:1001800084E003C0843011F485E085BD8FEF90E0FA
:10019000821B930B90930D0180930C0180910C01B5
:1001A00090910D0186BD81E080936E0078949092CD
:1001B0000F0180920E012A960FB6F894DEBF0FBE93
:1001C000CDBFCF91DF911F910F91FF90EF90DF9006
:1001D000CF90BF909F908F90089508951F920F9297
:1001E0000FB60F9211242F933F934F935F936F930A
:1001F0007F938F939F93AF93BF93EF93FF9381E090
:100200000E94260180910C0190910D0186BD80E035
:100210000E942601FF91EF91BF91AF919F918F9125
:100220007F916F915F914F913F912F910F900FBEF2
:100230000F901F901895509A5898519A5998389A3B
:100240004098399A41983A9A42980895882311F42F
:1002500058980895589A0895882311F45998089544
:10026000599A0895882311F440980895409A089562
:10027000882311F441980895419A0895882311F430
:1002800042980895429A089597FB092E05260ED0AC
:1002900057FD04D014D00AD0001C38F45095409576
:1002A000309521953F4F4F4F5F4F0895F6F790954A
:1002B0008095709561957F4F8F4F9F4F0895A1E274
:1002C0001A2EAA1BBB1BFD010DC0AA1FBB1FEE1FD0
:1002D000FF1FA217B307E407F50720F0A21BB30B1B
:1002E000E40BF50B661F771F881F991F1A9469F797
:1002F00060957095809590959B01AC01BD01CF01F3
:060300000895F894FFCF00
:0A030600010008004000000100049F
:00000001FF
