:100000000C9445000C944F000C944F000C944F003E
:100010000C944F000C944F000C944F000C944F0024
:100020000C944F000C944F000C944F000C944F0014
:100030000C944F000C944F000C944F000C944F0004
:100040000C94E5010C944F000C944F000C944F005D
:100050000C944F000C944F000C944F000C944F00E4
:100060000C944F000C944F000000000000000000B2
:100070000000000000000000000000000000000080
:100080000000000000000000A0C111241FBECFEF3F
:10009000D8E0DEBFCDBF0E9451000C9439050C940E
:1000A00000000E94C1038BEB91E063E00E94180303
:1000B00081E991E060E00E94180387E691E062E048
:1000C0000E9418038DE391E061E00E94180383E130
:1000D00091E064E00E9418038FEE90E066E00E94D9
:1000E00018038BEC90E065E00E94180387EA90E02B
:1000F00068E00E94180383E890E067E00E9418031C
:100100000E948903FFCF80E090E00E94DB0489E039
:100110000E94EB0489E00E94B2040E94F40489E08A
:100120000E94BC04805E0E94EB040E94D504805FA4
:100130000E94EB040E94CE040E94EB040E94D804AB
:100140000E94EB048AE590E00E94F103E0CF80E09A
:1001500090E00E94DB0488E00E94EB0488E00E94AB
:10016000B2040E94F40488E00E94BC04805E0E94F5
:10017000EB040E94D504805F0E94EB040E94CE0431
:100180000E94EB040E94D8040E94EB0480E590E0FA
:100190000E94F103E0CF80E090E00E94DB0487E062
:1001A0000E94EB0487E00E94B2040E94F40487E0FE
:1001B0000E94BC04805E0E94EB040E94D504805F14
:1001C0000E94EB040E94CE040E94EB040E94D8041B
:1001D0000E94EB0486E490E00E94F103E0CF80E00F
:1001E00090E00E94DB0486E00E94EB0486E00E941F
:1001F000B2040E94F40486E00E94BC04805E0E9467
:10020000EB040E94D504805F0E94EB040E94CE04A0
:100210000E94EB040E94D8040E94EB048CE390E05F
:100220000E94F103E0CF1F933D9A80E090E00E948E
:10023000DB0410E288B1812788B985E00E94EB04D5
:1002400085E00E94B2040E94F40485E00E94BC0490
:10025000805E0E94EB040E94D504805F0E94EB0444
:100260000E94CE040E94EB040E94D8040E94EB047A
:1002700082E390E00E94F103DDCF1F933C9A80E07F
:1002800090E00E94DB0410E188B1812788B984E006
:100290000E94EB0484E00E94B2040E94F40484E013
:1002A0000E94BC04805E0E94EB040E94D504805F23
:1002B0000E94EB040E94CE040E94EB040E94D8042A
:1002C0000E94EB0488E290E00E94F103DDCF1F93CF
:1002D0003B9A80E090E00E94DB0418E088B181271F
:1002E00088B983E00E94EB0483E00E94B2040E947C
:1002F000F40483E00E94BC04805E0E94EB040E9430
:10030000D504805F0E94EB040E94CE040E94EB049F
:100310000E94D8040E94EB048EE190E00E94F10359
:10032000DDCF1F933A9A80E090E00E94DB0414E056
:1003300088B1812788B982E00E94EB0482E00E94A4
:10034000B2040E94F40482E00E94BC04805E0E9419
:10035000EB040E94D504805F0E94EB040E94CE044F
:100360000E94EB040E94D8040E94EB0484E190E018
:100370000E94F103DDCF1F93399A80E090E00E9444
:10038000DB0412E088B1812788B981E00E94EB0488
:1003900081E00E94B2040E94F40481E00E94BC0447
:1003A000805E0E94EB040E94D504805F0E94EB04F3
:1003B0000E94CE040E94EB040E94D8040E94EB0429
:1003C0008AE090E00E94F103DDCF5D9A0F920FB6B4
:1003D0000F921F9211242F923F924F925F926F9231
:1003E0007F928F929F92AF92BF92CF92DF92EF92C5
:1003F000FF920F931F932F933F934F935F936F93AE
:100400007F938F939F93AF93BF93CF93DF93EF939C
:10041000FF931DB72EB7EEE0F1E000910701000F4A
:10042000E00F00E0F01F108321830091060100938C
:1004300046000091000103950093000110E0009137
:100440000101011F0093010100910201011F0093AE
:10045000020100910301011F0093030100910401B7
:10046000011F0093040180E00FEF0093090100E0F9
:1004700000930A01982F00930701892FE4E4F1E02B
:1004800000910701000FE00F00E0F01F00811181D3
:10049000202F212B59F0813099F021E0021B20E020
:1004A000120B00831183202F212B51F4E0E3F1E0A4
:1004B00000910701E00F00E0F01F81E0808301C0A0
:1004C00080E0813091F4EAE3F1E000E080910701FF
:1004D000E80FF01F808100910901801730F48093AC
:1004E00009010091070100930A010091070103959A
:1004F00010910801011708F4BECF00910A01009382
:10050000070100910701002329F000910C010395D8
:1005100000930C0100910B010395043640F000E0BC
:1005200010910C0110930D0110E010930C01009339
:100530000B01EEE0F1E000910701000FE00F00E099
:10054000F01F008111810DBF1EBFFF91EF91DF9160
:10055000CF91BF91AF919F918F917F916F915F915B
:100560004F913F912F911F910F91FF90EF90DF904E
:10057000CF90BF90AF909F908F907F906F905F9043
:100580004F903F902F901F900F900FBE0F905D984F
:100590001895F8945D98559AA0912201B091230185
:1005A0000DB71EB70D931D93ED93FD93A0932201FC
:1005B000B093230100E00093000100930101009338
:1005C00002010093030100930401009305010093CD
:1005D00006010093070100930801009309010093AD
:1005E0000A0100930B0100930C0100930D0100938D
:1005F00044000093450000936E0000933500009383
:1006000047000093480000934600809305016093E3
:100610000601A0912201B0912301FE91EE911E915D
:100620000E910DBF1EBFA0932201B0932301089528
:10063000A0912201B09123010DB71EB70D931D9318
:10064000ED93FD93A0932201B09323010091070144
:1006500010E0EAE3F1E0E00FF11F60830091070191
:10066000102F139520E8129FE02DF12D31971124C2
:1006700018E521E0E10FF21FEDBFFEBF8F939F93BE
:100680000F920FB60F921F9211242F923F924F920A
:100690005F926F927F928F929F92AF92BF92CF9212
:1006A000DF92EF92FF920F931F932F933F934F93FD
:1006B0005F936F937F938F939F93AF93BF93CF93EA
:1006C000DF93EF93FF931DB72EB700910701302FF3
:1006D000330FEEE0F1E0E30F00E0F01F1193208311
:1006E000009107010395009307010091080103950C
:1006F00000930801A0912201B0912301FE91EE9197
:100700001E910E910DBF1EBFA0932201B093230135
:10071000089500E000930701EEE0F1E001911081FF
:100720000DBF1EBFFF91EF91DF91CF91BF91AF91B0
:100730009F918F917F916F915F914F913F912F91F9
:100740001F910F91FF90EF90DF90CF90BF90AF90EF
:100750009F908F907F906F905F904F903F902F90E1
:100760001F900F900FBE0F90009105011091060190
:10077000009345001093460001E000936E007894CA
:100780000895112404E211E0009322011093230143
:10079000A0912201B09123010DB71EB70D931D93B7
:1007A000ED93FD93A0932201B093230183E062E8CF
:1007B0000E94C90280EE97E0969587956FEF0E94A0
:1007C0001803A0912201B0912301FE91EE911E9198
:1007D0000E910DBF1EBFA0932201B0932301089577
:1007E000FFCF0F920FB6F8940F921F9211242F9201
:1007F0003F924F925F926F927F928F929F92AF92B1
:10080000BF92CF92DF92EF92FF920F931F932F939D
:100810003F934F935F936F937F938F939F93AF9388
:10082000BF93CF93DF93EF93FF931DB72EB7EEE007
:10083000F1E000910701000FE00F00E0F01F1083CE
:100840002183E4E4F1E000910701000FE00F00E0F4
:10085000F01F80839183E0E3F1E000910701E00F56
:1008600000E0F01F00E0008381E00FEF009309013A
:1008700000E000930A01982F00930701892FE4E418
:10088000F1E000910701000FE00F00E0F01F008190
:100890001181202F212B59F0813099F021E0021B8A
:1008A00020E0120B00831183202F212B51F4E0E371
:1008B000F1E000910701E00F00E0F01F81E080838C
:1008C00001C080E0813091F4EAE3F1E000E0809142
:1008D0000701E80FF01F808100910901801730F4B3
:1008E000809309010091070100930A01009107011B
:1008F000039510910801011708F4BECF00910A0179
:1009000000930701EEE0F1E000910701000FE00F16
:1009100000E0F01F008111810DBF1EBFFF91EF911C
:10092000DF91CF91BF91AF919F918F917F916F9107
:100930005F914F913F912F911F910F91FF90EF90F9
:10094000DF90CF90BF90AF909F908F907F906F90EF
:100950005F904F903F902F901F900F900FBE0F9081
:1009600078940895082F000FE4E4F1E0E00F00E030
:10097000F01F819190810895082FE0E3F1E0E00FEE
:1009800000E0F01F80810895809108010895082FEC
:10099000EAE3F1E0E00FF11D808108958091090103
:1009A000089580910A018A95089580910A01089519
:1009B00080910D01089502E00093C000092F00937B
:1009C000C500082F0093C40006E00093C20008E0B1
:1009D0000093C10008950F938093C6000091C0005A
:1009E00005FFFCCF0F9108958F93892F0E94EB0490
:1009F0008F910E94EB0408950F938093C60000919D
:100A0000C00006FFFCCF0091C00000640093C0004E
:100A10000F9108950E94FC048F93892F0E94FC047B
:100A20008F91089580934A00862F0E94FC04872F9F
:100A30000E94FC0480914A000E94FC0480934A00BA
:100A4000892F0E94FC0480914A0008950E2F1F2FC9
:100A5000282FE82FF92F80810E94FC04E02FF12F2E
:100A6000822F08950E942605815090406150D1F751
:060A70000895F894FFCF89
:00000001FF
