:100000000C9445000C944F000C944F000C944F003E
:100010000C944F000C944F000C944F000C944F0024
:100020000C944F000C944F000C944F000C944F0014
:100030000C944F000C944F000C944F000C944F0004
:100040000C9476020C944F000C944F000C944F00CB
:100050000C944F000C944F000C944F000C944F00E4
:100060000C944F000C944F000000000000000000B2
:100070000000000000000000000000000000000080
:10008000000000000000000031C211241FBECFEFAD
:10009000D8E0DEBFCDBF0E9451000C9454060C94F2
:1000A00000000E94AE048AEB91E060E00E94A90388
:1000B00081E991E063E00E94A90388E691E062E0B3
:1000C0000E94A9038FE391E061E00E94A90386E109
:1000D00091E064E00E94A90383EF90E066E00E9453
:1000E000A90380ED90E065E00E94A9038DEA90E00D
:1000F00068E00E94A9038AE890E067E00E94A903F3
:100100008BB190E289278BB98BB189278BB90E947B
:100110002404FFCF80E090E00E94C8050E94C5053E
:100120006AE00E942606805D0E94D8050E94C505EF
:100130006AE00E942606892F805D0E94D80585E22C
:100140000E94D8058DE00E94D8058AE00E94D8055B
:100150008AE590E00E94DE04E1CF80E090E00E941A
:10016000C8050E94C5056AE00E942606805D0E94BF
:10017000D8050E94C5056AE00E942606892F805D89
:100180000E94D80585E20E94D8058DE00E94D8051E
:100190008AE00E94D80580E590E00E94DE04E1CF6D
:1001A00080E090E00E94C8050E94C5056AE00E94B8
:1001B0002606805D0E94D8050E94C5056AE00E945F
:1001C0002606892F805D0E94D80585E20E94D80509
:1001D0008DE00E94D8058AE00E94D80586E490E070
:1001E0000E94DE04E1CF80E090E00E94C8050E94FA
:1001F000C5056AE00E942606805D0E94D8050E941F
:10020000C5056AE00E942606892F805D0E94D805F8
:1002100085E20E94D8058DE00E94D8058AE00E9400
:10022000D8058CE390E00E94DE04E1CF1F933D9A55
:1002300080E090E00E94C80510E288B1812788B96B
:100240000E94C5056AE00E942606805D0E94D805CE
:100250000E94C5056AE00E942606892F805D0E94E3
:10026000D80585E20E94D8058DE00E94D8058AE075
:100270000E94D80582E390E00E94DE04DECF1F9347
:100280003C9A80E090E00E94C80510E188B1812787
:1002900088B90E94C5056AE00E942606805D0E941A
:1002A000D8050E94C5056AE00E942606892F805D58
:1002B0000E94D80585E20E94D8058DE00E94D805ED
:1002C0008AE00E94D80588E290E00E94DE04DECF3A
:1002D0001F933B9A80E090E00E94C80518E088B127
:1002E000812788B90E94C5056AE00E942606805DC4
:1002F0000E94D8050E94C5056AE00E942606892F43
:10030000805D0E94D80585E20E94D8058DE00E949C
:10031000D8058AE00E94D8058EE190E00E94DE04B4
:10032000DECF1F933A9A80E090E00E94C80514E067
:1003300088B1812788B90E94C5056AE00E94260617
:10034000805D0E94D8050E94C5056AE00E942606CD
:10035000892F805D0E94D80585E20E94D8058DE036
:100360000E94D8058AE00E94D80584E190E00E94AE
:10037000DE04DECF9F92AF92BF92CF92DF92EF92D8
:10038000FF920F931F93DF93CF93CDB7DEB72A97DA
:100390000FB6F894DEBF0FBECDBF86E7898384E633
:1003A0008A838B8380E28C838DE089878AE08A87C9
:1003B000399A80E090E00E94C80510927C0010926B
:1003C0007A0080917C008E6480937C0080917A001A
:1003D000856080937A0080917A00806880937A00AB
:1003E00085E090E00E94DE0492E0992E5E01089480
:1003F000A11CB11C8BE0C82ED12CCC0EDD1E88B107
:10040000892588B980917A00806480937A008091F0
:100410007A0084FFFCCF20917800309179008091A0
:100420007A00806180937A0040E050E060E070E301
:1004300081E190E00E943206122F032FF42EE52E68
:10044000622F732F842F952F28EE33E040E050E089
:100450000E943206CA01B9012AE030E040E050E0D3
:100460000E943206605D6D83612F702F8F2D9E2D4F
:1004700024E630E040E050E00E943206CA01B901B3
:100480002AE030E040E050E00E943206605D6E837A
:10049000612F702F8F2D9E2D2AE030E040E050E03C
:1004A0000E943206CA01B9012AE030E040E050E083
:1004B0000E943206605D6F83612F702F8F2D9E2DFD
:1004C0002AE030E040E050E00E943206605D68873C
:1004D0008501F80181918F010E94D8050C151D0539
:1004E000C1F78AE090E00E94DE0489CF5D9A0F9206
:1004F0000FB60F921F9211242F923F924F925F924C
:100500006F927F928F929F92AF92BF92CF92DF9223
:10051000EF92FF920F931F932F933F934F935F930D
:100520006F937F938F939F93AF93BF93CF93DF93FB
:10053000EF93FF93EEE0F1E000910701000FE00F71
:1005400000E0F01F0DB71EB7008311830091060174
:10055000009346000091000103950093000110E014
:1005600000910101011F0093010100910201011F8F
:100570000093020100910301011F00930301009108
:100580000401011F0093040180E00FEF00930901B3
:1005900000E000930A01982F00930701892FE4E4FB
:1005A000F1E000910701000FE00F00E0F01F008173
:1005B0001181202F212B59F0813099F021E0021B6D
:1005C00020E0120B00831183202F212B51F4E0E354
:1005D000F1E000910701E00F00E0F01F81E080836F
:1005E00001C080E0813091F4EAE3F1E000E0809125
:1005F0000701E80FF01F808100910901801730F496
:10060000809309010091070100930A0100910701FD
:10061000039510910801011708F4BECF00910A015B
:100620000093070100910701002329F000910C01BC
:10063000039500930C0100910B010395043640F0E3
:1006400000E010910C0110930D0110E010930C01CB
:1006500000930B01EEE0F1E000910701000FE00FC5
:1006600000E0F01F008111810DBF1EBFFF91EF91CF
:10067000DF91CF91BF91AF919F918F917F916F91BA
:100680005F914F913F912F911F910F91FF90EF90AC
:10069000DF90CF90BF90AF909F908F907F906F90A2
:1006A0005F904F903F902F901F900F900FBE0F9034
:1006B0005D981895F8945D98559AA0912201B09193
:1006C00023010DB71EB70D931D93ED93FD93A093DA
:1006D0002201B093230100E0009300010093010187
:1006E00000930201009303010093040100930501AC
:1006F000009306010093070100930801009309018C
:1007000000930A0100930B0100930C0100930D016B
:10071000009344000093450000936E000093350061
:100720000093470000934800009346008093050122
:1007300060930601A0912201B0912301FE91EE91F8
:100740001E910E910DBF1EBFA0932201B0932301F5
:100750000895A0912201B09123010DB71EB70D930A
:100760001D93ED93FD93A0932201B093230110E01C
:10077000EAE3F1E000910701E00F00E0F01F608381
:10078000E0E3F1E000910701E00F00E0F01F01E07D
:10079000008300910701102F139520E8129FE02D90
:1007A000F12D3197112418E521E0E10FF21FEDBF83
:1007B000FEBF8F939F930F920FB60F921F9211243B
:1007C0002F923F924F925F926F927F928F929F9261
:1007D000AF92BF92CF92DF92EF92FF920F931F934F
:1007E0002F933F934F935F936F937F938F939F9339
:1007F000AF93BF93CF93DF93EF93FF931DB72EB7C4
:1008000000910701302F330FEEE0F1E0E30F00E03D
:10081000F01F1193208300910701039500930701B6
:1008200000910801039500930801A0912201B09165
:100830002301FE91EE911E910E910DBF1EBFA0935C
:100840002201B0932301089581E00FEF0093090185
:1008500000E000930A01982F00930701892FE4E438
:10086000F1E000910701000FE00F00E0F01F0081B0
:100870001181202F212B59F0813099F021E0021BAA
:1008800020E0120B00831183202F212B51F4E0E391
:10089000F1E000910701E00F00E0F01F81E08083AC
:1008A00001C080E0813091F4EAE3F1E000E0809162
:1008B0000701E80FF01F808100910901801730F4D3
:1008C000809309010091070100930A01009107013B
:1008D000039510910801011708F4BECF00910A0199
:1008E00000930701EEE0F1E000910701000FE00F37
:1008F00000E0F01F008111810DBF1EBFFF91EF913D
:10090000DF91CF91BF91AF919F918F917F916F9127
:100910005F914F913F912F911F910F91FF90EF9019
:10092000DF90CF90BF90AF909F908F907F906F900F
:100930005F904F903F902F901F900F900FBE0F90A1
:1009400078940091050110910601009345001093E1
:10095000460001E000936E0078940895112404E2AB
:1009600011E00093220110932301A0912201B09184
:1009700023010DB71EB70D931D93ED93FD93A09327
:100980002201B093230183E062E80E945A038AEBBC
:1009900099E0969587956FEF0E94A903A091220197
:1009A000B0912301FE91EE911E910E910DBF1EBFDD
:1009B000A0932201B09323010895FFCF0F920FB6A9
:1009C000F8940F921F9211242F923F924F925F92B0
:1009D0006F927F928F929F92AF92BF92CF92DF924F
:1009E000EF92FF920F931F932F933F934F935F9339
:1009F0006F937F938F939F93AF93BF93CF93DF9327
:100A0000EF93FF93EEE0F1E000910701000FE00F9C
:100A100000E0F01F0DB71EB700831183E4E4F1E09E
:100A200000910701000FE00F00E0F01F8083918329
:100A3000E0E3F1E000910701E00F00E0F01F00E0CB
:100A4000008381E00FEF0093090100E000930A01A9
:100A5000982F00930701892FE4E4F1E0009107014A
:100A6000000FE00F00E0F01F00811181202F212BEB
:100A700059F0813099F021E0021B20E0120B008335
:100A80001183202F212B51F4E0E3F1E000910701C5
:100A9000E00F00E0F01F81E0808301C080E0813042
:100AA00091F4EAE3F1E000E080910701E80FF01F24
:100AB000808100910901801730F480930901009131
:100AC000070100930A0100910701039510910801A5
:100AD000011708F4BECF00910A0100930701EEE070
:100AE000F1E000910701000FE00F00E0F01F00812E
:100AF00011810DBF1EBFFF91EF91DF91CF91BF918B
:100B0000AF919F918F917F916F915F914F913F91A5
:100B10002F911F910F91FF90EF90DF90CF90BF909A
:100B2000AF909F908F907F906F905F904F903F908D
:100B30002F901F900F900FBE0F9078940895082F5C
:100B4000000FE4E4F1E0E00F00E0F01F81919081FC
:100B50000895082FE0E3F1E0E00F00E0F01F80814E
:100B60000895809108010895082FEAE3F1E0E00F6D
:100B7000F11D8081089580910901089580910A01F5
:100B80008A95089580910A01089580910D01089534
:100B900002E00093C000092F0093C500082F0093C6
:100BA000C40006E00093C20008E00093C10008956D
:100BB0000F938093C6000091C00005FFFCCF0F91FA
:100BC00008958F93892F0E94D8058F910E94D80590
:100BD00008950F938093C6000091C00006FFFCCFDC
:100BE0000091C00000640093C0000F9108950E941E
:100BF000E9058F93892F0E94E9058F9108958093CD
:100C00004A00862F0E94E905872F0E94E9058091FE
:100C10004A000E94E90580934A00892F0E94E90555
:100C200080914A0008950E2F1F2F282FE82FF92FAB
:100C300080810E94E905E02FF12F822F08950E9404
:100C40001306815090406150D1F70895991B79E0C7
:100C500004C0991F961708F0961B881F7A95C9F74C
:100C600080950895A1E21A2EAA1BBB1BFD010DC0A1
:100C7000AA1FBB1FEE1FFF1FA217B307E407F5074C
:100C800020F0A21BB30BE40BF50B661F771F881F28
:100C9000991F1A9469F760957095809590959B01BE
:0C0CA000AC01BD01CF010895F894FFCF16
:00000001FF
