:100000000C9445000C944F000C944F000C944F003E
:100010000C944F000C944F000C944F000C944F0024
:100020000C944F000C944F000C944F000C944F0014
:100030000C944F000C944F000C944F000C944F0004
:100040000C947A010C944F000C944F000C944F00C8
:100050000C944F000C944F000C944F000C944F00E4
:100060000C944F000C944F000000000000000000B2
:100070000000000000000000000000000000000080
:10008000000000000000000035C111241FBECFEFAA
:10009000D8E0DEBFCDBF0E9451000C9493040C94B5
:1000A000000083E062E80E9429028AE890E060E0B4
:1000B0000E9490028BE890E060E00E9490028AE348
:1000C00091E060E00E94900281E291E060E00E9495
:1000D000900288E091E060E00E9490028FEE90E054
:1000E00060E00E94900286ED90E060E00E94900245
:1000F0008DEB90E060E00E94900284EA90E060E086
:100100000E9490028AE591E060E00E9490020E94C5
:10011000E402FFCFFFCF0F931F93CF93DF9380E0D5
:1001200090E00E942B04C4E0D1E089E00E944604E4
:100130008E0101501040CE010E9456048CE290E0E6
:100140000E941D03E801F1CF0F931F93CF93DF931C
:1001500080E090E00E942B04C0EFD0E088E00E9495
:1001600046048E0101501040CE010E9456048AE2DE
:1001700090E00E941D03E801F1CF0F931F93CF93EE
:10018000DF9380E090E00E942B04CCEDD0E087E08C
:100190000E9446048E0101501040CE010E94560478
:1001A00086E290E00E941D03E801F1CF0F931F93B8
:1001B000CF93DF9380E090E00E942B04C8ECD0E066
:1001C00086E00E9446048E0101501040CE010E943C
:1001D00056048FE190E00E941D03E801F1CF0F93D8
:1001E0001F93CF93DF9380E090E00E942B04C4EB39
:1001F000D0E085E00E9446048E0101501040CE01FF
:100200000E9456048DE190E00E941D03E801F1CFA9
:100210000F931F93CF93DF9380E090E00E942B0415
:10022000C0EAD0E084E00E9446048E0101501040F4
:10023000CE010E9456048AE190E00E941D03E8016D
:10024000F1CF0F931F93CF93DF9380E090E00E9454
:100250002B04CCE8D0E083E00E9446048E010150DC
:100260001040CE010E94560488E190E00E941D03D8
:10027000E801F1CFFF920F931F93CF93DF9380E0BC
:1002800090E00E942B04569AC8E7D0E080E4F82E54
:100290008BB18F258BB982E00E9446048E010150FC
:1002A0001040CE010E94560481E190E00E941D039F
:1002B000E801EECFFF920F931F93CF93DF9380E07F
:1002C00090E00E942B04559AC4E6D0E090E2F92E0B
:1002D0008BB18F258BB981E00E9446048E010150BD
:1002E0001040CE010E9456048AE090E00E941D0357
:1002F000E801EECF299A0F920FB60F921F921124A8
:100300002F923F924F925F926F927F928F929F9225
:10031000AF92BF92CF92DF92EF92FF920F931F9313
:100320002F933F934F935F936F937F938F939F93FD
:10033000AF93BF93CF93DF93EF93FF9300910601A9
:100340000093460000910001039500930001009185
:100350000101011D0093010100910201011D0093A3
:10036000020100910301011D0093030100910401AA
:10037000011D009304010DB71EB720910701220F44
:10038000EAE0F1E0E20FF11D019310830091080112
:100390000A95202F220FE2E3F1E0E20FF11DA19177
:1003A000B0812A2F2B2B41F01197B083A2932A2FD3
:1003B0002B2B11F00C94E201EEE1F1E0E00FF11DC6
:1003C00021E02083003021F7009108010A95102FC9
:1003D000EEE1F1E0E10FF11D1081113021F000306C
:1003E000A9F70C94F701009307010C94FA0100E0BF
:1003F0000093070100910701000FEAE0F1E0E00F30
:10040000F11D019110810DBF1EBFFF91EF91DF9192
:10041000CF91BF91AF919F918F917F916F915F919C
:100420004F913F912F911F910F91FF90EF90DF908F
:10043000CF90BF90AF909F908F907F906F905F9084
:100440004F903F902F901F900F900FBE0F902998C4
:100450001895F894219A299800E0009300010093E0
:100460000101009302010093030100930401009332
:100470000501009306010093070100930801009312
:100480000901009344000093450000936E0000931F
:100490003500009347000093480000934600082F62
:1004A00000930501062F0093060108952091000195
:1004B00030910101409102015091030160910401CA
:1004C000A0910001B0910101E0910201F0910301BE
:1004D000009004012A1751F73B1741F74E1731F7E7
:1004E0005F1721F7601511F770E080E090E0089544
:1004F0002FB6F89420910001309101014091020142
:10050000509103016091040170E080E090E02FBE03
:10051000089580E00FB707FD81E008952DB6089596
:100520002DB63EB64E2E5F2E00910701E8E2F1E0B7
:10053000E00FF11D6083009108010395009308010D
:10054000062F039510E8019FE02DF12D319711241E
:1005500006E411E0E00FF11FEDBFFEBF8F939F9304
:1005600078940F920FB60F921F9211242F923F9200
:100570004F925F926F927F928F929F92AF92BF92B3
:10058000CF92DF92EF92FF920F931F932F933F939F
:100590004F935F936F937F938F939F93AF93BF938B
:1005A000CF93DF93EF93FF930DB71EB7262F220F44
:1005B000EAE0F1E0E20F20E0F21F019310832DBE8C
:1005C0003EBEE42DF52D08954E2E5F2EEAE0F1E0BB
:1005D000019110810DBF1EBFFF91EF91DF91CF916F
:1005E000BF91AF919F918F917F916F915F914F914B
:1005F0003F912F911F910F91FF90EF90DF90CF903F
:10060000BF90AF909F908F907F906F905F904F9032
:100610003F902F901F900F900FBE0F90E42DF52D5F
:1006200000910501109106010093450010934600CA
:1006300001E000936E000895FFCF0F920FB6F8947B
:100640000F921F9211242F923F924F925F926F92BE
:100650007F928F929F92AF92BF92CF92DF92EF9252
:10066000FF920F931F932F933F934F935F936F933B
:100670007F938F939F93AF93BF93CF93DF93EF932A
:10068000FF930DB71EB720910701220FEAE0F1E0BA
:10069000E20FF11D0193108300910701102F110F3C
:1006A000E2E3F1E0E10F10E0F11F81939083EEE1CE
:1006B000F1E0E00F00E0F01F00E00083009108018E
:1006C0000A95102FEEE1F1E0E10FF11D10811130DC
:1006D00021F00030A9F70C947103009307010C94EA
:1006E000740300E00093070100910701000FEAE0A6
:1006F000F1E0E00FF11D019110810DBF1EBFFF91D0
:10070000EF91DF91CF91BF91AF919F918F917F91A9
:100710006F915F914F913F912F911F910F91FF909A
:10072000EF90DF90CF90BF90AF909F908F907F9091
:100730006F905F904F903F902F901F900F900FBE43
:100740000F907894089500910701000FE2E3F1E023
:10075000E00F00E0F01F8191908108950091070162
:10076000EEE1F1E0E00F00E0F01F808108950F92CC
:100770000FB6F8940F921F9211242F923F924F922E
:100780005F926F927F928F929F92AF92BF92CF9221
:10079000DF92EF92FF920F931F932F933F934F930C
:1007A0005F936F937F938F939F93AF93BF93CF93F9
:1007B000DF93EF93FF930DB71EB720910701220F30
:1007C000EAE0F1E0E20FF11D0193108300910801CE
:1007D0000A95102FEEE1F1E0E10FF11D10811130CB
:1007E00021F00030A9F70C94F903009307010C9451
:1007F000FC0300E00093070100910701000FEAE00D
:10080000F1E0E00FF11D019110810DBF1EBFFF91BE
:10081000EF91DF91CF91BF91AF919F918F917F9198
:100820006F915F914F913F912F911F910F91FF9089
:10083000EF90DF90CF90BF90AF909F908F907F9080
:100840006F905F904F903F902F901F900F900FBE32
:100850000F907894089502E00093C000092F009350
:10086000C500082F0093C40006E00093C20008E012
:100870000093C100089500933E008093C60000914C
:10088000C00005FFFCCF00913E00089500933E009C
:100890008093C6000091C00006FFFCCF0091C0000D
:1008A00000640093C00000913E0008950E94460439
:1008B00080933E00892F0E94460480913E00089557
:1008C00080934A00862F0E944604872F0E94460488
:1008D00080914A000E94460480934A00892F0E941A
:1008E000460480914A0008950E2F1F2F282FE82FCD
:1008F000F92F80810E944604E02FF12F822F089566
:100900000E947404815090406150D1F70895082FDF
:1009100064E573E58BE6902F0E9460048DE09AE019
:0A0920000E9456040895F894FFCFDA
:00000001FF
