:100000000C9445000C9457000C9457000C94570026
:100010000C9457000C9457000C9457000C94570004
:100020000C9457000C9457000C9457000C945700F4
:100030000C9457000C9457000C9457000C945700E4
:100040000C948F000C9457000C9457000C9457009C
:100050000C9457000C9457000C9457000C945700C4
:100060000C9457000C9457000000000000000000A2
:100070000000000000000000000000000000000080
:1000800000000000000000004AC011241FBECFEF96
:10009000D8E0DEBFCDBF15E0A0E0B1E001C01D9209
:1000A000A331B107E1F70E9459000C942B020C9484
:1000B000000088EE93E00E9416010E9487010E94D2
:1000C000C201FFCF0895559A40E228EC30E08BB191
:1000D00084278BB984EF91E0F9013197F1F701970B
:1000E000D9F7F5CF569A40E428EC30E08BB184275D
:1000F0008BB988E592E0F9013197F1F70197D9F7CB
:10010000F5CF579A28EC30E08BB180588BB98CEB47
:1001100092E0F9013197F1F70197D9F7F5CF299AD4
:100120000F920FB60F921F9211242F923F924F926F
:100130005F926F927F928F929F92AF92BF92CF9277
:10014000DF92EF92FF920F931F932F933F934F9362
:100150005F936F937F938F939F93AF93BF93CF934F
:10016000DF93EF93FF93009109010093460001E0B4
:1001700010910101100F1093010100E01091020194
:10018000101F1093020110910301101F109303011F
:1001900010910401101F1093040110910501101F0C
:1001A000109305018DB79EB700910B01000FEDE094
:1001B000F1E0E00F00E0F01F8193908300910B01CC
:1001C000039512E0011710F0011BFCCF00930B0107
:1001D000000FEDE0F1E0E00F00E0F01F8191908171
:1001E0008DBF9EBFFF91EF91DF91CF91BF91AF91F6
:1001F0009F918F917F916F915F914F913F912F913F
:100200001F910F91FF90EF90DF90CF90BF90AF9034
:100210009F908F907F906F905F904F903F902F9026
:100220001F900F900FBE0F9029981895F894219A5F
:10023000299800E00093010100930201009303015B
:100240000093040100930501009306010093070148
:10025000009308010093090100E00093440000931B
:10026000450000936E000093350000934700009313
:1002700048000093460003E00093450002E8009325
:1002800009010093460001E000936E0008950FB746
:10029000F8942091010130910201409103015091A5
:1002A00004016091050170E080E090E00FBF0895C7
:1002B00080E00FB707FD81E00895559A5D980BB176
:1002C00010E201270BB90BEE1FEF00001A95E9F7BA
:1002D0000A95D1F7F4CF569A5E980BB110E4012736
:1002E0000BB90DE91FEF00001A95E9F70A95D1F750
:1002F000F4CF579A5F980BB110E801270BB90BEEBA
:100300001FEF00001A95E9F70A95D1F7F4CF2DB643
:100310003EB603E911E00DBF1EBF06EC10E01695D6
:1003200007950F931F930F920FB60F921F921124F0
:100330002F923F924F925F926F927F928F929F92F5
:10034000AF92BF92CF92DF92EF92FF920F931F93E3
:100350002F933F934F935F936F937F938F939F93CD
:10036000AF93BF93CF93DF93EF93FF930DB71EB778
:1003700000930D0110930E0100E000930B012DBEC0
:100380003EBE089503E112E00DBF1EBF04EE10E073
:10039000169507950F931F930DB71EB700930F0186
:1003A0001093100101E000930B017894089502E08E
:1003B0000093C00000E00093C50003E00093C40078
:1003C00006E00093C20008E00093C1000895009386
:1003D0003E008093C6000091C00005FFFCCF009155
:1003E0003E00089500933E008093C6000091C00037
:1003F00006FFFCCF0091C00000640093C000009194
:100400003E0008950E94F201892F0E94F201089592
:1004100080934A00862F0E94F201872F0E94F201EA
:1004200080914A000E94F201892F0E94F2010895F2
:100430000E2F1F2F282FE82FF92F80810E94F20105
:10044000E02FF12F822F08950E94180281509040D2
:0A0450006150D1F70895F894FFCF32
:00000001FF
