:100000000C9445000C944F000C944F000C944F003E
:100010000C944F000C944F000C944F000C944F0024
:100020000C944F000C944F000C944F000C944F0014
:100030000C944F000C944F000C944F000C944F0004
:100040000C948B000C944F000C944F000C944F00B8
:100050000C944F000C944F000C944F000C944F00E4
:100060000C944F000C944F000000000000000000B2
:100070000000000000000000000000000000000080
:10008000000000000000000046C011241FBECFEF9A
:10009000D8E0DEBFCDBF0E9451000C9440020C940A
:1000A000000088EE93E00E9413010E949C010E94D0
:1000B000D701FFCFCF93DF93EC010E944901C90123
:1000C000C20FD31F03C00E944901C9018C179D07AD
:1000D000D0F3DF91CF910895579A8BB180588BB9A7
:1000E00086E490E00E945A00F8CF1F93569A10E4DD
:1000F0008BB181278BB989E290E00E945A00F8CF3A
:100100001F93559A10E28BB181278BB98CE090E058
:100110000E945A00F8CF299A0F920FB60F921F92A1
:1001200011242F923F924F925F926F927F928F9203
:100130009F92AF92BF92CF92DF92EF92FF920F9376
:100140001F932F933F934F935F936F937F938F935F
:100150009F93AF93BF93CF93DF93EF93FF93009160
:1001600008010093460001E010910001100F109368
:10017000000100E010910101101F10930101109186
:100180000201101F1093020110910301101F109320
:10019000030110910401101F109304018DB79EB745
:1001A00000910601000FEAE0F1E0E00F00E0F01F2F
:1001B0008193908300910601039510910701011727
:1001C00010F0011BFCCF00930601000FEAE0F1E004
:1001D000E00F00E0F01F819190818DBF9EBFFF91E5
:1001E000EF91DF91CF91BF91AF919F918F917F91CF
:1001F0006F915F914F913F912F911F910F91FF90C0
:10020000EF90DF90CF90BF90AF909F908F907F90B6
:100210006F905F904F903F902F901F900F900FBE68
:100220000F9029981895F894219A299800E0009346
:100230000001009301010093020100930301009368
:100240000401009305010093060100930701009348
:1002500008010093090102E00093070100E0009308
:1002600044000093450000936E0000933500009316
:100270004700009348000093460003E000934500C8
:1002800002E8009308010093460001E000936E002D
:1002900008950FB7F8942091000130910101409129
:1002A0000201509103016091040170E080E090E050
:1002B0000FBF089580E00FB707FD81E008952DB6C8
:1002C0003EB60FEF10E0600F711F6DBF7EBF082FAD
:1002D000192F169507950F931F930F920FB60F9234
:1002E0001F9211242F923F924F925F926F927F92B2
:1002F0008F929F92AF92BF92CF92DF92EF92FF9236
:100300000F931F932F933F934F935F936F937F931D
:100310008F939F93AF93BF93CF93DF93EF93FF930D
:100320000DB71EB7422F440FEAE0F1E0E40FF11DD4
:10033000019310832DBE3EBE2DB63EB60FE012E0F7
:100340000DBF1EBF00E011E0169507950F931F9398
:100350000F920FB60F921F9211242F923F924F923D
:100360005F926F927F928F929F92AF92BF92CF9245
:10037000DF92EF92FF920F931F932F933F934F9330
:100380005F936F937F938F939F93AF93BF93CF931D
:10039000DF93EF93FF930DB71EB700930A011093FD
:1003A0000B0100E0009306012DBE3EBE08950FE054
:1003B00013E00DBF1EBF0AEE10E0169507950F93D0
:1003C0001F930DB71EB700930C0110930D0101E0B0
:1003D000009306017894089502E00093C00000E0C5
:1003E0000093C50003E00093C40006E00093C20040
:1003F00008E00093C100089500933E008093C6007A
:100400000091C00005FFFCCF00913E0008950093CD
:100410003E008093C6000091C00006FFFCCF009113
:10042000C00000640093C00000913E0008950E9447
:100430000702892F0E940702089580934A00862FA1
:100440000E940702872F0E94070280914A000E94A3
:100450000702892F0E94070208950E2F1F2F282FB1
:10046000E82FF92F80810E940702E02FF12F822FC1
:1004700008950E942D02815090406150D1F7089557
:04048000F894FFCF1E
:00000001FF
