:100000000C9445000C944F000C944F000C944F003E
:100010000C944F000C944F000C944F000C944F0024
:100020000C944F000C944F000C944F000C944F0014
:100030000C944F000C944F000C944F000C944F0004
:100040000C941C020C944F000C944F000C944F0025
:100050000C944F000C944F000C944F000C944F00E4
:100060000C944F000C944F000000000000000000B2
:100070000000000000000000000000000000000080
:100080000000000000000000D7C111241FBECFEF08
:10009000D8E0DEBFCDBF0E9451000C94B5060C9491
:1000A00000000E94620483EF91E061E00E94560329
:1000B00082EC91E060E00E94560381E991E062E009
:1000C0000E94560380E691E063E00E9456038FE2AF
:1000D00091E064E00E94560384E091E066E00E94B3
:1000E000560389ED90E065E00E9456038EEA90E0A9
:1000F00068E00E94560383E890E067E00E945603A0
:100100000E94D103FFCF80E090E00E94580689E072
:100110000E94680681E00E942E060E94700681E01F
:100120000E943806805E0E94680689E00E942E06C2
:100130000E94700689E00E943806805E0E94680670
:100140000E945206805F0E9468060E944B060E9431
:1001500068068AE590E00E949204D9CF80E090E0A2
:100160000E94580688E00E94680681E00E942E06E0
:100170000E94700681E00E943806805E0E94680638
:1001800088E00E942E060E94700688E00E943806D1
:10019000805E0E9468060E945206805F0E94680688
:1001A0000E944B060E94680680E590E00E9492043F
:1001B000D9CF80E090E00E94580687E00E94680650
:1001C00081E00E942E060E94700681E00E9438069F
:1001D000805E0E94680687E00E942E060E947006DC
:1001E00087E00E943806805E0E9468060E945206E0
:1001F000805F0E9468060E944B060E94680686E4A3
:1002000090E00E949204D9CF80E090E00E945806CE
:1002100086E00E94680681E00E942E060E94700619
:1002200081E00E943806805E0E94680686E00E9497
:100230002E060E94700686E00E943806805E0E94AC
:1002400068060E945206805F0E9468060E944B0664
:100250000E9468068CE390E00E949204D9CF1F931D
:100260003D9A80E090E00E94580610E288B1812714
:1002700088B985E00E94680681E00E942E060E94EF
:10028000700681E00E943806805E0E94680685E064
:100290000E942E060E94700685E00E943806805E4D
:1002A0000E9468060E945206805F0E9468060E94B3
:1002B0004B060E94680682E390E00E949204D6CF2B
:1002C0001F933C9A80E090E00E94580610E188B1AC
:1002D000812788B984E00E94680681E00E942E068A
:1002E0000E94700681E00E943806805E0E946806C7
:1002F00084E00E942E060E94700684E00E94380668
:10030000805E0E9468060E945206805F0E94680616
:100310000E944B060E94680688E290E00E949204C8
:10032000D6CF1F933B9A80E090E00E94580618E0D9
:1003300088B1812788B983E00E94680681E00E9425
:100340002E060E94700681E00E943806805E0E94A0
:10035000680683E00E942E060E94700683E00E94D9
:100360003806805E0E9468060E945206805F0E94E6
:1003700068060E944B060E9468068EE190E00E948B
:100380009204D6CF1F933A9A80E090E00E945806DC
:1003900014E088B1812788B982E00E94680681E074
:1003A0000E942E060E94700681E00E943806805E40
:1003B0000E94680682E00E942E060E94700682E07B
:1003C0000E943806805E0E9468060E945206805F86
:1003D0000E9468060E944B060E94680681E090E039
:1003E0000E949204D6CF0F931F93399A80E090E039
:1003F0000E94580602E088B1802788B981E00E94F7
:10040000680681E00E943806805E0E9468060E94AD
:100410005206805F0E9468060E944B060E94680692
:1004200010E081E00E9468061F5F183CD1F78AE067
:1004300090E00E949204DFCF5D9A0F920FB60F9268
:100440001F9211242F923F924F925F926F927F9250
:100450008F929F92AF92BF92CF92DF92EF92FF92D4
:100460000F931F932F933F934F935F936F937F93BC
:100470008F939F93AF93BF93CF93DF93EF93FF93AC
:10048000EEE0F1E000910701000FE00F00E0F01F47
:100490000DB71EB70083118300910601009346003B
:1004A0000091000103950093000110E0009101010B
:1004B000011F0093010100910201011F009302013D
:1004C00000910301011F0093030100910401011F2A
:1004D0000093040180E00FEF0093090100E0009316
:1004E0000A01F82E009307018F2DE4E4F1E000915A
:1004F0000701000FE00F00E0F01F00811181202FA5
:10050000212B59F0813099F021E0021B20E0120BE1
:1005100000831183202F212B51F4E0E3F1E00091BF
:100520000701E00F00E0F01F81E0808308C0E0E3F6
:10053000F1E000910701E00F00E0F01F80818130C1
:1005400091F4EAE3F1E000E080910701E80FF01F89
:10055000808100910901801730F480930901009196
:10056000070100930A01009107010395109108010A
:10057000011708F4B7CF00910A0100930701009119
:100580000701002329F000910C01039500930C0151
:1005900000910B010395043640F000E010910C012E
:1005A00010930D0110E010930C0100930B01EEE08D
:1005B000F1E000910701000FE00F00E0F01F008163
:1005C00011810DBF1EBFFF91EF91DF91CF91BF91C0
:1005D000AF919F918F917F916F915F914F913F91DB
:1005E0002F911F910F91FF90EF90DF90CF90BF90D0
:1005F000AF909F908F907F906F905F904F903F90C3
:100600002F901F900F900FBE0F905D981895F89443
:100610005D98559AA0912201B09123010DB71EB7A4
:100620000D931D93ED93FD93A0932201B0932301AD
:1006300000E0009300010093010100930201009388
:100640000301009304010093050100930601009348
:100650000701009308010093090100930A01009328
:100660000B0100930C0100930D01009344000093D3
:10067000450000936E0000933500009347000093FF
:100680004800009346008093050160930601A09105
:100690002201B0912301FE91EE911E910E910DBFAA
:1006A0001EBFA0932201B09323010895A0912201BF
:1006B000B09123010DB71EB70D931D93ED93FD93DC
:1006C000A0932201B093230110E0EAE3F1E000914E
:1006D0000701E00F00E0F01F6083E0E3F1E000912C
:1006E0000701E00F00E0F01F01E000830091070127
:1006F000102F139520EA129FE02DF12D3197112430
:1007000018E521E0E10FF21FEDBFFEBF8F939F932D
:100710000F920FB60F921F9211242F923F924F9279
:100720005F926F927F928F929F92AF92BF92CF9281
:10073000DF92EF92FF920F931F932F933F934F936C
:100740005F936F937F938F939F93AF93BF93CF9359
:10075000DF93EF93FF931DB72EB700910701302F62
:10076000330FEEE0F1E0E30F00E0F01F1193208380
:10077000009107010395009307010091080103957B
:1007800000930801A0912201B0912301FE91EE9106
:100790001E910E910DBF1EBFA0932201B0932301A5
:1007A000089581E00FEF0093090100E000930A0132
:1007B000F82E009307018F2DE4E4F1E0009107018A
:1007C000000FE00F00E0F01F00811181202F212B8E
:1007D00059F0813099F021E0021B20E0120B0083D8
:1007E0001183202F212B51F4E0E3F1E00091070168
:1007F000E00F00E0F01F81E0808308C0E0E3F1E05B
:1008000000910701E00F00E0F01F8081813091F43A
:10081000EAE3F1E000E080910701E80FF01F80813A
:1008200000910901801730F48093090100910701BC
:1008300000930A0100910701039510910801011727
:1008400008F4B7CF00910A0100930701EEE0F1E050
:1008500000910701000FE00F00E0F01F00811181FF
:100860000DBF1EBFFF91EF91DF91CF91BF91AF916F
:100870009F918F917F916F915F914F913F912F91B8
:100880001F910F91FF90EF90DF90CF90BF90AF90AE
:100890009F908F907F906F905F904F903F902F90A0
:1008A0001F900F900FBE0F9078940091050110914A
:1008B0000601009345001093460001E000936E008E
:1008C00078940895112404E211E00093220110931A
:1008D0002301A0912201B09123010DB71EB70D9302
:1008E0001D93ED93FD93A0932201B093230183E028
:1008F00062E80E94070382E299E0969587956FEF80
:100900000E945603A0912201B0912301FE91EE9125
:100910001E910E910DBF1EBFA0932201B093230123
:100920000895FFCF0F920FB6F8940F921F921124E3
:100930002F923F924F925F926F927F928F929F92EF
:10094000AF92BF92CF92DF92EF92FF920F931F93DD
:100950002F933F934F935F936F937F938F939F93C7
:10096000AF93BF93CF93DF93EF93FF93EEE0F1E06C
:1009700000910701000FE00F00E0F01F0DB71EB758
:1009800000831183E4E4F1E000910701000FE00F20
:1009900000E0F01F80839183E0E3F1E00091070124
:1009A000E00F00E0F01F00E0008381E00FEF009314
:1009B000090100E000930A01F82E009307018F2D32
:1009C000E4E4F1E000910701000FE00F00E0F01F08
:1009D00000811181202F212B59F0813099F021E0E5
:1009E000021B20E0120B00831183202F212B51F4D6
:1009F000E0E3F1E000910701E00F00E0F01F81E08B
:100A0000808308C0E0E3F1E000910701E00F00E01F
:100A1000F01F8081813091F4EAE3F1E000E0809101
:100A20000701E80FF01F808100910901801730F461
:100A3000809309010091070100930A0100910701C9
:100A4000039510910801011708F4B7CF00910A012E
:100A500000930701EEE0F1E000910701000FE00FC5
:100A600000E0F01F008111810DBF1EBFFF91EF91CB
:100A7000DF91CF91BF91AF919F918F917F916F91B6
:100A80005F914F913F912F911F910F91FF90EF90A8
:100A9000DF90CF90BF90AF909F908F907F906F909E
:100AA0005F904F903F902F901F900F900FBE0F9030
:100AB00078940895F894E4E4F1E000910701000FC0
:100AC000E00F00E0F01F80839183E0E3F1E000910C
:100AD0000701E00F00E0F01F04E000837894089520
:100AE0000F920FB6F8940F921F9211242F923F92FB
:100AF0004F925F926F927F928F929F92AF92BF922E
:100B0000CF92DF92EF92FF920F931F932F933F9319
:100B10004F935F936F937F938F939F93AF93BF9305
:100B2000CF93DF93EF93FF93EEE0F1E000910701A5
:100B3000000FE00F00E0F01F0DB71EB70083118318
:100B4000E0E3F1E000910701E00F00E0F01F04E0B6
:100B5000008381E00FEF0093090100E000930A0198
:100B6000F82E009307018F2DE4E4F1E000910701D6
:100B7000000FE00F00E0F01F00811181202F212BDA
:100B800059F0813099F021E0021B20E0120B008324
:100B90001183202F212B51F4E0E3F1E000910701B4
:100BA000E00F00E0F01F81E0808308C0E0E3F1E0A7
:100BB00000910701E00F00E0F01F8081813091F487
:100BC000EAE3F1E000E080910701E80FF01F808187
:100BD00000910901801730F4809309010091070109
:100BE00000930A0100910701039510910801011774
:100BF00008F4B7CF00910A0100930701EEE0F1E09D
:100C000000910701000FE00F00E0F01F008111814B
:100C10000DBF1EBFFF91EF91DF91CF91BF91AF91BB
:100C20009F918F917F916F915F914F913F912F9104
:100C30001F910F91FF90EF90DF90CF90BF90AF90FA
:100C40009F908F907F906F905F904F903F902F90EC
:100C50001F900F900FBE0F9078940895082F000FEB
:100C6000E4E4F1E0E00F00E0F01F8081918108955D
:100C7000082FE0E3F1E0E00F00E0F01F808108952D
:100C8000809108010895082FEAE3F1E0E00F00E009
:100C9000F01F8081089580910901089580910A01D3
:100CA0008A95089580910A01089580910D01089513
:100CB00002E00093C000092F0093C500082F0093A5
:100CC000C40006E00093C20008E00093C10008954C
:100CD000982F8091C00085FFFCCF8093C6000895B7
:100CE0008F93892F0E9468068F910E94680608954D
:100CF0000F938093C6000091C00006FFFCCF0091C7
:100D0000C00000640093C0000F9108950E9478060F
:100D10008F93892F0E9478068F91089580934A00BF
:100D2000862F0E947806872F0E94780680914A00BD
:100D30000E94780680934A00892F0E94780680914D
:100D40004A0008950E2F1F2F282FE82FF92F80819A
:100D50000E947806E02FF12F822F08950E94A206AC
:0E0D6000815090406150D1F70895F894FFCF74
:00000001FF
