:100000000C9445000C944F000C944F000C944F003E
:100010000C944F000C944F000C944F000C944F0024
:100020000C944F000C944F000C944F000C944F0014
:100030000C944F000C944F000C944F000C944F0004
:100040000C94EB010C944F000C944F000C944F0057
:100050000C944F000C944F000C944F000C944F00E4
:100060000C944F000C944F000000000000000000B2
:100070000000000000000000000000000000000080
:100080000000000000000000A6C111241FBECFEF39
:10009000D8E0DEBFCDBF0E9451000C9485060C94C1
:1000A00000000E94310483EC91E060E00E9425038F
:1000B00088E991E063E00E9425038DE691E062E02B
:1000C0000E94250382E491E061E00E94250387E11C
:1000D00091E064E00E94250382EF90E066E00E94D8
:1000E00025038DEC90E065E00E94250388EA90E00E
:1000F00068E00E94250383E890E067E00E94250302
:100100000E94A003FFCF80E090E00E94270689E0D4
:100110000E94370681E00E94FD050E94400689E0AA
:100120000E94FD050E94400689E00E940706805E4D
:100130000E9437060E942106805F0E9437060E94B7
:100140001A060E9437068AE590E00E946104DFCF1C
:1001500080E090E00E94270688E00E94370681E058
:100160000E94FD050E94400688E00E94FD050E9455
:10017000400688E00E940706805E0E9437060E94C3
:100180002106805F0E9437060E941A060E943706E9
:1001900080E590E00E946104DFCF80E090E00E9463
:1001A000270687E00E94370681E00E94FD050E9435
:1001B000400687E00E94FD050E94400687E00E94FD
:1001C0000706805E0E9437060E942106805F0E941B
:1001D00037060E941A060E94370686E490E00E94C5
:1001E0006104DFCF80E090E00E94270686E00E9455
:1001F000370681E00E94FD050E94400686E00E94CD
:10020000FD050E94400686E00E940706805E0E946F
:1002100037060E942106805F0E9437060E941A0658
:100220000E9437068CE390E00E946104DFCF1F93A9
:100230003D9A80E090E00E94270610E288B1812775
:1002400088B985E00E94370681E00E94FD050E9482
:10025000400685E00E94FD050E94400685E00E9460
:100260000706805E0E9437060E942106805F0E947A
:1002700037060E941A060E94370682E390E00E9429
:100280006104DCCF1F933C9A80E090E00E94270637
:1002900010E188B1812788B984E00E94370681E0A7
:1002A0000E94FD050E94400684E00E94FD050E9418
:1002B000400684E00E940706805E0E9437060E9486
:1002C0002106805F0E9437060E941A060E943706A8
:1002D00088E290E00E946104DCCF1F933B9A80E0AB
:1002E00090E00E94270618E088B1812788B983E052
:1002F0000E94370681E00E94FD050E94400683E0CF
:100300000E94FD050E94400683E00E940706805E71
:100310000E9437060E942106805F0E9437060E94D5
:100320001A060E9437068EE190E00E946104DCCF3D
:100330001F933A9A80E090E00E94270614E088B16B
:10034000812788B982E00E94370681E00E94FD057E
:100350000E94400682E00E94FD050E94400682E065
:100360000E940706805E0E9437060E942106805F79
:100370000E9437060E941A060E94370681E090E02C
:100380000E946104DCCF1F93399A80E090E00E94C4
:10039000270612E08AE090E00E94290588B18127B3
:1003A00088B981E00E94370681E00E94FD050E9425
:1003B000400681E00E940706805E0E9437060E9488
:1003C0002106805F0E9437060E941A060E943706A7
:1003D0000E943F05DFCF5D9A0F920FB60F921F92DA
:1003E00011242F923F924F925F926F927F928F9241
:1003F0009F92AF92BF92CF92DF92EF92FF920F93B4
:100400001F932F933F934F935F936F937F938F939C
:100410009F93AF93BF93CF93DF93EF93FF93EEE060
:10042000F1E000910701000FE00F00E0F01F0DB7B1
:100430001EB70083118300910601009346000091CE
:10044000000103950093000110E000910101011FDC
:100450000093010100910201011F0093020100912C
:100460000301011F0093030100910401011F009388
:10047000040180E00FEF0093090100E000930A01FE
:10048000982F00930701892FE4E4F1E00091070120
:10049000000FE00F00E0F01F00811181202F212BC1
:1004A00059F0813099F021E0021B20E0120B00830B
:1004B0001183202F212B51F4E0E3F1E0009107019B
:1004C000E00F00E0F01F81E0808308C0E0E3F1E08E
:1004D00000910701E00F00E0F01F8081813091F46E
:1004E000EAE3F1E000E080910701E80FF01F80816E
:1004F00000910901801730F48093090100910701F0
:1005000000930A010091070103951091080101175A
:1005100008F4B7CF00910A01009307010091070189
:10052000002329F000910C01039500930C01009128
:100530000B010395043640F000E010910C0110937C
:100540000D0110E010930C0100930B01EEE0F1E0BF
:1005500000910701000FE00F00E0F01F0081118102
:100560000DBF1EBFFF91EF91DF91CF91BF91AF9172
:100570009F918F917F916F915F914F913F912F91BB
:100580001F910F91FF90EF90DF90CF90BF90AF90B1
:100590009F908F907F906F905F904F903F902F90A3
:1005A0001F900F900FBE0F905D981895F8945D986E
:1005B000559AA0912201B09123010DB71EB70D935A
:1005C0001D93ED93FD93A0932201B093230100E0CE
:1005D00000930001009301010093020100930301C5
:1005E00000930401009305010093060100930701A5
:1005F000009308010093090100930A0100930B0185
:1006000000930C0100930D010093440000934500FA
:1006100000936E000093350000934700009348005C
:10062000009346008093050160930601A09122018A
:10063000B0912301FE91EE911E910E910DBF1EBF50
:10064000A0932201B09323010895A0912201B091BB
:1006500023010DB71EB70D931D93ED93FD93A0934A
:100660002201B093230110E0EAE3F1E000910701D9
:10067000E00F00E0F01F6083E0E3F1E0009107018C
:10068000E00F00E0F01F01E0008300910701102F50
:10069000139520E8129FE02DF12D3197112418E5D4
:1006A00021E0E10FF21FEDBFFEBF8F939F930F92EA
:1006B0000FB60F921F9211242F923F924F925F928A
:1006C0006F927F928F929F92AF92BF92CF92DF9262
:1006D000EF92FF920F931F932F933F934F935F934C
:1006E0006F937F938F939F93AF93BF93CF93DF933A
:1006F000EF93FF931DB72EB700910701302F330FF3
:10070000EEE0F1E0E30F00E0F01F11932083009191
:1007100007010395009307010091080103950093D9
:100720000801A0912201B0912301FE91EE911E914A
:100730000E910DBF1EBFA0932201B0932301089517
:1007400081E00FEF0093090100E000930A01982F68
:1007500000930701892FE4E4F1E000910701000F05
:10076000E00F00E0F01F00811181202F212B59F0B4
:10077000813099F021E0021B20E0120B00831183ED
:10078000202F212B51F4E0E3F1E000910701E00F6D
:1007900000E0F01F81E0808308C0E0E3F1E0009119
:1007A0000701E00F00E0F01F8081813091F4EAE35F
:1007B000F1E000E080910701E80FF01F80810091D7
:1007C0000901801730F4809309010091070100931B
:1007D0000A0100910701039510910801011708F41F
:1007E000B7CF00910A0100930701EEE0F1E000911C
:1007F0000701000FE00F00E0F01F008111810DBF25
:100800001EBFFF91EF91DF91CF91BF91AF919F916B
:100810008F917F916F915F914F913F912F911F9198
:100820000F91FF90EF90DF90CF90BF90AF909F908F
:100830008F907F906F905F904F903F902F901F9080
:100840000F900FBE0F907894009105011091060152
:10085000009345001093460001E000936E007894E9
:100860000895112404E211E0009322011093230162
:10087000A0912201B09123010DB71EB70D931D93D6
:10088000ED93FD93A0932201B093230183E062E8EE
:100890000E94D60280EC98E0969587956FEF0E94B3
:1008A0002503A0912201B0912301FE91EE911E91AA
:1008B0000E910DBF1EBFA0932201B0932301089596
:1008C000FFCF0F920FB6F8940F921F9211242F9220
:1008D0003F924F925F926F927F928F929F92AF92D0
:1008E000BF92CF92DF92EF92FF920F931F932F93BD
:1008F0003F934F935F936F937F938F939F93AF93A8
:10090000BF93CF93DF93EF93FF93EEE0F1E000917D
:100910000701000FE00F00E0F01F0DB71EB70083C6
:100920001183E4E4F1E000910701000FE00F00E023
:10093000F01F80839183E0E3F1E000910701E00F75
:1009400000E0F01F00E0008381E00FEF0093090159
:1009500000E000930A01982F00930701892FE4E437
:10096000F1E000910701000FE00F00E0F01F0081AF
:100970001181202F212B59F0813099F021E0021BA9
:1009800020E0120B00831183202F212B51F4E0E390
:10099000F1E000910701E00F00E0F01F81E08083AB
:1009A00008C0E0E3F1E000910701E00F00E0F01F74
:1009B0008081813091F4EAE3F1E000E08091070169
:1009C000E80FF01F808100910901801730F48093B7
:1009D00009010091070100930A01009107010395A5
:1009E00010910801011708F4B7CF00910A01009394
:1009F0000701EEE0F1E000910701000FE00F00E0D9
:100A0000F01F008111810DBF1EBFFF91EF91DF919B
:100A1000CF91BF91AF919F918F917F916F915F9196
:100A20004F913F912F911F910F91FF90EF90DF9089
:100A3000CF90BF90AF909F908F907F906F905F907E
:100A40004F903F902F901F900F900FBE0F90789473
:100A50000895F894E4E4F1E000910701000FE00F3D
:100A600000E0F01F80839183E0E3F1E00091070153
:100A7000E00F00E0F01F04E00083789408950F92E7
:100A80000FB6F8940F921F9211242F923F924F921B
:100A90005F926F927F928F929F92AF92BF92CF920E
:100AA000DF92EF92FF920F931F932F933F934F93F9
:100AB0005F936F937F938F939F93AF93BF93CF93E6
:100AC000DF93EF93FF93EEE0F1E000910701000F59
:100AD000E00F00E0F01F0DB71EB700831183E0E3C5
:100AE000F1E000910701E00F00E0F01F00E000835B
:100AF00081E00FEF0093090100E000930A01982FB5
:100B000000930701892FE4E4F1E000910701000F51
:100B1000E00F00E0F01F00811181202F212B59F000
:100B2000813099F021E0021B20E0120B0083118339
:100B3000202F212B51F4E0E3F1E000910701E00FB9
:100B400000E0F01F81E0808308C0E0E3F1E0009165
:100B50000701E00F00E0F01F8081813091F4EAE3AB
:100B6000F1E000E080910701E80FF01F8081009123
:100B70000901801730F48093090100910701009367
:100B80000A0100910701039510910801011708F46B
:100B9000B7CF00910A0100930701EEE0F1E0009168
:100BA0000701000FE00F00E0F01F008111810DBF71
:100BB0001EBFFF91EF91DF91CF91BF91AF919F91B8
:100BC0008F917F916F915F914F913F912F911F91E5
:100BD0000F91FF90EF90DF90CF90BF90AF909F90DC
:100BE0008F907F906F905F904F903F902F901F90CD
:100BF0000F900FBE0F9078940895082F000FE4E433
:100C0000F1E0E00F00E0F01F819190810895082F3E
:100C1000E0E3F1E0E00F00E0F01F808108958091B3
:100C200008010895082FEAE3F1E0E00F00E0F01F6B
:100C30008081089580910901089580910A018A9523
:100C4000089580910A01089580910D01089502E0B0
:100C50000093C000092F0093C500082F0093C40023
:100C600006E00093C20008E00093C10008950F93CE
:100C70008093C6000091C00005FFFCCF0F9108953E
:100C80008F93892F0E9437068F910E94370608950F
:100C90000F938093C6000091C00006FFFCCF009127
:100CA000C00000640093C0000F9108950E944806A0
:100CB0008F93892F0E9448068F91089580934A0050
:100CC000862F0E944806872F0E94480680914A007E
:100CD0000E94480680934A00892F0E94480680910E
:100CE0004A0008950E2F1F2F282FE82FF92F8081FB
:100CF0000E944806E02FF12F822F08950E9472066D
:0E0D0000815090406150D1F70895F894FFCFD4
:00000001FF
