:100000000C9434000C943E000C943E000C943E0082
:100010000C943E000C943E000C943E000C943E0068
:100020000C943E000C943E000C943E000C943E0058
:100030000C943E000C943E000C943E000C943E0048
:100040000C9458000C943E000C943E000C943E001E
:100050000C943E000C943E000C943E000C943E0028
:100060000C943E000C943E0011241FBECFEFD8E04C
:10007000DEBFCDBF0E9440000C94F1000C94000044
:10008000559A5D9888EE93E00E94BE00FFCF000075
:100090000000000000000000000000000000000060
:1000A000000000000000000000000000000000C090
:1000B0005D9A0F920FB60F921F9211242F923F92CA
:1000C0004F925F926F927F928F929F92AF92BF9268
:1000D000CF92DF92EF92FF920F931F932F933F9354
:1000E0004F935F936F937F938F939F93AF93BF9340
:1000F000CF93DF93EF93FF9310910001109346008D
:1001000001E000900101000E009201010090020147
:10011000011C0092020100900301011C00920301E6
:1001200000900401011C0092040100900501011CD3
:1001300000920501FF91EF91DF91CF91BF91AF91B7
:100140009F918F917F916F915F914F913F912F91EF
:100150001F910F91FF90EF90DF90CF90BF90AF90E5
:100160009F908F907F906F905F904F903F902F90D7
:100170001F900F900FBE0F905D981895F89400E0B7
:10018000009344000093450000936E0000933500F7
:1001900000934700009348000093460003E000935B
:1001A000450002E8009300010093460001E000933F
:1001B0006E00789408951FB7F89420910101309152
:1001C00002014091030150910401609105017727DC
:1001D000882799271FBF089580E00FB707FD81E0AA
:0601E0000895F894FFCF22
:00000001FF
