:100000000C9445000C944F000C944F000C944F003E
:100010000C944F000C944F000C944F000C944F0024
:100020000C944F000C944F000C944F000C944F0014
:100030000C944F000C944F000C944F000C944F0004
:100040000C940E010C944F000C944F000C944F0034
:100050000C944F000C944F000C944F000C944F00E4
:100060000C944F000C944F000000000000000000B2
:100070000000000000000000000000000000000080
:100080000000000000000000C9C011241FBECFEF17
:10009000D8E0DEBFCDBF0E9451000C9426030C9423
:1000A00000000E946C028DEF90E064E00E94C401A9
:1000B0008AEE90E060E00E94C40187ED90E061E08C
:1000C0000E94C4018AEC90E062E00E94C4018DEBC2
:1000D00090E063E00E94C40180E090E00E94D202C0
:1000E00080E00E94C4020E94EB0281E00E94C402F0
:1000F0000E94EB0282E00E94C4020E94EB0283E0B5
:100100000E94C4020E94EB0284E00E94C4020E948A
:10011000EB0285E00E94C4020E94EB020E94C10231
:100120000E94EB020E94CB020E94EB020E94CF02CF
:100130000E94EB020E943002FFCF80E090E00E941C
:10014000D20288E00E94EB02FCCF80E090E00E94A7
:10015000D20287E00E94EB02FCCF80E090E00E9498
:10016000D20286E00E94EB02FCCF80E090E00E9489
:10017000D20285E00E94EB02FCCF80E090E00E947A
:10018000D20284E00E94E2020E94CB02805F0E94C1
:10019000E202F7CF80E090E00E94D20283E00E946A
:1001A000E2020E94CB02805F0E94E202F7CF1F931F
:1001B00080E090E00E94D202569A10E48BB1812731
:1001C0008BB982E00E94E2020E94CB02805F0E9413
:1001D000E202F4CF1F9380E090E00E94D202559A91
:1001E00010E28BB181278BB981E00E94E2020E946C
:1001F000CB02805F0E94E202F4CF80E090E00E9498
:10020000D20280E00E94EB020E94CB02805F0E943B
:10021000E2020E94B6020E94E202F3CF299A0F92F4
:100220000FB60F921F9211242F923F924F925F921E
:100230006F927F928F929F92AF92BF92CF92DF92F6
:10024000EF92FF920F931F932F933F934F935F93E0
:100250006F937F938F939F93AF93BF93CF93DF93CE
:10026000EF93FF9300910601009346000DB71EB770
:1002700020910701220FEAE0F1E0E20F20E0F21FF7
:100280000083118300910701039510910801011764
:1002900010F0011BFCCF0093070100910701000F34
:1002A000EAE0F1E0E00F00E0F01F019110810DBFE6
:1002B0001EBFFF91EF91DF91CF91BF91AF919F91C1
:1002C0008F917F916F915F914F913F912F911F91EE
:1002D0000F91FF90EF90DF90CF90BF90AF909F90E5
:1002E0008F907F906F905F904F903F902F901F90D6
:1002F0000F900FBE0F9029981895F894219A29987D
:10030000A0911E01B0911F010DB71EB70D931D9353
:10031000ED93FD93A0931E01B0931F0100E00093A5
:100320000001009301010093020100930301009377
:100330000401009305010093060100930701009357
:1003400008010093090100934400009345000093C5
:100350006E0000933500009347000093480000931F
:1003600046008093050160930601A0911E01B091A3
:100370001F01FE91EE911E910E910DBF1EBFA09325
:100380001E01B0931F010895A0911E01B0911F019D
:100390000DB71EB70D931D93ED93FD93A0931E0112
:1003A000B0931F010091070110E0E6E3F1E0E00FD8
:1003B000F11F6083102F139520E8129FE02DF12D7F
:1003C0003197112414E521E0E10FF21FEDBFFEBFCC
:1003D0008F939F930F920FB60F921F9211242F921B
:1003E0003F924F925F926F927F928F929F92AF92C5
:1003F000BF92CF92DF92EF92FF920F931F932F93B2
:100400003F934F935F936F937F938F939F93AF939C
:10041000BF93CF93DF93EF93FF931DB72EB7302F8A
:10042000330FEAE0F1E0E30FF11D11932083109107
:10043000070113951093070110910801139510936C
:100440000801A0911E01B0911F01FE91EE911E9135
:100450000E910DBF1EBFA0931E01B0931F01089502
:100460004E2E5F2E00E000930701EAE0F1E00191DB
:1004700010810DBF1EBFFF91EF91DF91CF91BF9112
:10048000AF919F918F917F916F915F914F913F912C
:100490002F911F910F91FF90EF90DF90CF90BF9021
:1004A000AF909F908F907F906F905F904F903F9014
:1004B0002F901F900F900FBE0F90E42DF52D0091FF
:1004C000050110910601009345001093460001E0DC
:1004D00000936E0078940895112400E211E00093D7
:1004E0001E0110931F01A0911E01B0911F010DB7B5
:1004F0001EB70D931D93ED93FD93A0931E01B09332
:100500001F0183E062E80E947D0186E395E09695F5
:1005100087956FEF0E94C401A0911E01B0911F0149
:10052000FE91EE911E910E910DBF1EBFA0931E0174
:10053000B0931F01089590E080E00E94D20283E210
:100540000E94EB02FCCF00910701102F110FE0E495
:10055000F1E0E10F10E0F11F81939083ECE2F1E014
:10056000E00F00E0F01F00E0008308950091070114
:10057000000FE0E4F1E0E00F00E0F01F81919081D6
:100580000895809108010895082FE6E3F1E0E00F57
:10059000F11D80810895809109018A9508958091C7
:1005A0000901089502E00093C000092F0093C500DF
:1005B000082F0093C40006E00093C20008E00093F7
:1005C000C10008950F938093C6000091C00005FFFD
:1005D000FCCF0F9108958093C6000091C00006FFE4
:1005E000FCCF0091C00000640093C00008950E94F9
:1005F000EB028F93892F0E94EB028F9108958093D5
:100600004A00862F0E94EB02872F0E94EB02809106
:100610004A000E94EB0280934A00892F0E94EB025D
:1006200080914A0008950E2F1F2F282FE82FF92FB1
:1006300080810E94EB02E02FF12F822F08950E940B
:100640001303815090406150D1F70895F894FFCF83
:00000001FF
