:100000000C9445000C944F000C944F000C944F003E
:100010000C944F000C944F000C944F000C944F0024
:100020000C944F000C944F000C944F000C944F0014
:100030000C944F000C944F000C944F000C944F0004
:100040000C94A7000C944F000C944F000C944F009C
:100050000C944F000C944F000C944F000C944F00E4
:100060000C944F000C944F000000000000000000B2
:100070000000000000000000000000000000000080
:10008000000000000000000062C011241FBECFEF7E
:10009000D8E0DEBFCDBF0E9451000C946B020C94DF
:1000A000000088EE93E00E942F0188E990E060E074
:1000B00040E00E94790189E890E061E040E00E9420
:1000C00079018CE790E062E040E00E9479010E94B3
:1000D000C501FFCFCF93DF93EC010E946301C901FB
:1000E000C20FD31F03C00E946301C9018C179D0773
:1000F000D0F3DF91CF9108950E94F301579A8BB10D
:1001000080588BB90E94640286E490E00E946A00E5
:10011000F6CF1F930E94F301569A10E48BB181270A
:100120008BB90E945D0289E290E00E946A00F6CFDE
:100130001F930E94F301559A10E28BB181278BB96E
:100140000E9456028CE090E00E946A00F6CF299A45
:100150000F920FB60F921F9211242F923F924F923F
:100160005F926F927F928F929F92AF92BF92CF9247
:10017000DF92EF92FF920F931F932F933F934F9332
:100180005F936F937F938F939F93AF93BF93CF931F
:10019000DF93EF93FF93009105010093460001E088
:1001A00010910001100F1093000100E01091010167
:1001B000101F1093010110910201101F10930201F2
:1001C00010910301101F1093030110910401101FDF
:1001D000109304018DB79EB700910601000FEAE06D
:1001E000F1E0E00F00E0F01F8193908300910601A1
:1001F000039510910701011710F0011BFCCF00932C
:100200000601000FEAE0F1E0E00F00E0F01F81914D
:1002100090818DBF9EBFFF91EF91DF91CF91BF91F4
:10022000AF919F918F917F916F915F914F913F918E
:100230002F911F910F91FF90EF90DF90CF90BF9083
:10024000AF909F908F907F906F905F904F903F9076
:100250002F901F900F900FBE0F9029981895F8942B
:10026000219A299800E00093000100930101009376
:100270000201009303010093040100930501009320
:100280000601009307010093080100930901009300
:100290000701009344000093450000936E00009313
:1002A000350000934700009348000093460003E0A8
:1002B0000093450002E8009305010093460001E029
:1002C00000936E0008950FB7F894209100013091CB
:1002D000010140910201509103016091040170E01D
:1002E00080E090E00FBF089580E00FB707FD81E048
:1002F00008952DB63EB64E2E5F2E00910701039550
:1003000000930701062F039510E8019FE02DF12DC2
:10031000319711240EE111E0E00FF11FEDBFFEBF98
:100320008F939F930F920FB60F921F9211242F92CB
:100330003F924F925F926F927F928F929F92AF9275
:10034000BF92CF92DF92EF92FF920F931F932F9362
:100350003F934F935F936F937F938F939F93AF934D
:10036000BF93CF93DF93EF93FF930DB71EB7262F65
:10037000220FEAE0F1E0E20F20E0F21F0193108388
:100380002DBE3EBEE42DF52D08954E2E5F2EEAE0E3
:10039000F1E0019110810DBF1EBFFF91EF91DF9140
:1003A000CF91BF91AF919F918F917F916F915F910D
:1003B0004F913F912F911F910F91FF90EF90DF9000
:1003C000CF90BF90AF909F908F907F906F905F90F5
:1003D0004F903F902F901F900F900FBE0F90E42DE5
:1003E000F52D7894089502E00093C00000E000939A
:1003F000C50003E00093C40006E00093C20008E0DB
:100400000093C100089500933E008093C6000091C0
:10041000C00005FFFCCF00913E00089500933E0010
:100420008093C6000091C00006FFFCCF0091C00081
:1004300000640093C00000913E0008950E940E02E7
:1004400080933E00892F0E940E0280913E00089505
:1004500080934A00862F0E940E02872F0E940E0270
:1004600080914A000E940E0280934A00892F0E94C8
:100470000E0280914A0008950E2F1F2F282FE82F7B
:10048000F92F80810E940E02E02FF12F822F089514
:100490000E943C02815090406150D1F708956DE276
:1004A00074E482E697E60E942802089564E573E505
:1004B0008BE690E30E942802089564E573E58BE6DD
:1004C00091E30E942802089564E573E58BE692E3C8
:0A04D0000E9428020895F894FFCF5F
:00000001FF
