:100000000C9445000C944F000C944F000C944F003E
:100010000C944F000C944F000C941F020C944F0052
:100020000C944F000C944F000C944F000C944F0014
:100030000C944F000C944F000C944F000C944F0004
:100040000C944F000C944F000C944F000C944F00F4
:100050000C944F000C944F000C944F000C944F00E4
:100060000C944F000C944F000000000000000000B2
:1000700000000000E4C100000000000000000000DB
:1000800000000000000000000AC011241FBECFEFD6
:10009000D8E0DEBFCDBF0E9451000C94DF060C9467
:1000A00000000E9470048BEE91E065E00E94660300
:1000B0008EEB91E061E00E94660381E991E062E0ED
:1000C0000E94660384E691E063E00E94660387E392
:1000D00091E060E00E9466038AE091E066E00E94A1
:1000E00066038DED90E064E00E94660380EB90E093
:1000F00068E00E94660383E890E067E00E94660380
:100100000E94DE03FFCF80E090E00E9481068AE536
:1001100090E00E94800589E00E94910681E00E94A3
:1001200057060E949A0681E00E946106805E0E9446
:10013000910689E00E9457060E949A0689E00E9473
:100140006106805E0E9491060E947B06805F0E948D
:1001500091060E9474060E9491060E949605D7CFD0
:1001600080E090E00E94810680E590E00E9480059A
:1001700088E00E94910681E00E9457060E949A063C
:1001800081E00E946106805E0E94910688E00E94E4
:1001900057060E949A0688E00E946106805E0E94CF
:1001A00091060E947B06805F0E9491060E94740661
:1001B0000E9491060E949605D7CF80E090E00E94B1
:1001C000810686E490E00E94800587E00E94910607
:1001D00081E00E9457060E949A0681E00E94610613
:1001E000805E0E94910687E00E9457060E949A0650
:1001F00087E00E946106805E0E9491060E947B0655
:10020000805F0E9491060E9474060E9491060E94DF
:100210009605D7CF80E090E00E9481068CE390E0C5
:100220000E94800586E00E94910681E00E945706A8
:100230000E949A0681E00E946106805E0E949106FB
:1002400086E00E9457060E949A0686E00E94610698
:10025000805E0E9491060E947B06805F0E9491064C
:100260000E9474060E9491060E949605D7CF80E0F6
:1002700090E00E94810682E390E00E94800585E084
:100280000E94910681E00E9457060E949A0681E032
:100290000E946106805E0E94910685E00E945706DA
:1002A0000E949A0685E00E946106805E0E94910687
:1002B0000E947B06805F0E9491060E9474060E9445
:1002C00091060E949605D7CF80E090E00E948106BB
:1002D00088E290E00E94800584E00E94910681E01F
:1002E0000E9457060E949A0681E00E946106805E85
:1002F0000E94910684E00E9457060E949A0684E0BC
:100300000E946106805E0E9491060E947B06805FCB
:100310000E9491060E9474060E9491060E94960512
:10032000D7CF80E090E00E9481068EE190E00E94AD
:10033000800583E00E94910681E00E9457060E949A
:100340009A0681E00E946106805E0E94910683E029
:100350000E9457060E949A0683E00E946106805E12
:100360000E9491060E947B06805F0E9491060E9477
:1003700074060E9491060E949605D7CF80E090E017
:100380000E94810684E190E00E94800582E00E9444
:10039000910681E00E9457060E949A0681E00E9421
:1003A0006106805E0E94910682E00E9457060E94CC
:1003B0009A0682E00E946106805E0E9491060E9479
:1003C0007B06805F0E9491060E9474060E9491063F
:1003D0000E949605D7CF1F938AB1837F8AB98BB1CC
:1003E0008C608BB9549A5C9880E090E00E94810602
:1003F0008AE090E00E9480055C9A81E00E9491066C
:1004000081E00E9457060E949A0681E00E946106E0
:10041000805E0E9491060E947B06805F0E9491068A
:100420000E9474060E94910610E0812F0E9491069E
:100430001F5F183CD1F75C980E949605D9CF5D9A52
:10044000209153002E7F209353000F920FB60F92EE
:100450001F9211242F923F924F925F926F927F9240
:100460008F929F92AF92BF92CF92DF92EF92FF92C4
:100470000F931F932F933F934F935F936F937F93AC
:100480008F939F93AF93BF93CF93DF93EF93FF939C
:10049000E0E1F1E020910701220FE20F20E0F21FDE
:1004A0002DB73EB72083318320910601209346006B
:1004B0002091000123952093000130E0209101015B
:1004C000231F2093010120910201231F2093020189
:1004D00020910301231F2093030120910401231F76
:1004E0002093040180E02FEF2093090120E0209366
:1004F0000A01582F20930701852FE6E4F1E02091AF
:100500000701220FE20F20E0F21F20813181422FEC
:10051000432B59F0813099F041E0241B40E0340B2B
:1005200020833183422F432B51F4E2E3F1E0209109
:100530000701E20F20E0F21F81E0808308C0E2E3C0
:10054000F1E020910701E20F20E0F21F808181306D
:1005500019F0843009F012C0ECE3F1E020E0809162
:100560000701E80FF21F808120910901821730F402
:10057000809309012091070120930A01209107012E
:10058000239530910801231708F4B4CF20910A0174
:100590002093070120910701222329F020910C01CB
:1005A000239520930C0120910B012395243640F0D4
:1005B00020E030910C0130930D0130E030930C01BC
:1005C00020930B01E0E1F1E020910701220FE20FFF
:1005D00020E0F21F208131812DBF3EBFFF91EF91BE
:1005E000DF91CF91BF91AF919F918F917F916F914B
:1005F0005F914F913F912F911F910F91FF90EF903D
:10060000DF90CF90BF90AF909F908F907F906F9032
:100610005F904F903F902F901F900F900FBE0F90C4
:100620005D98209160002064209360001895F894F4
:100630005D98559AA0912401B09125012DB73EB740
:100640002D933D93ED93FD93A0932401B093250149
:1006500020E02093000120930101209302012093C8
:1006600003012093040120930501209306012093A8
:100670000701209308012093090120930A01209388
:100680000B0120930C0120930D01A895209154009B
:100690002070209354002091600028612093600016
:1006A00020E0209360008093050160930601A091F3
:1006B0002401B0912501FE91EE913E912E912DBF26
:1006C0003EBFA0932401B09325010895A091240179
:1006D000B09125012DB73EB72D933D93ED93FD933A
:1006E000A0932401B0932501ECE3F1E020910701F0
:1006F000E20F20E0F21F6083E2E3F1E020910701C6
:10070000E20F20E0F21F21E02083209107012395D2
:1007100030E8239FE02DF12D319711242AE531E0B7
:10072000E20FF31FEDBFFEBF8F939F930F920FB6A3
:100730000F921F9211242F923F924F925F926F92CD
:100740007F928F929F92AF92BF92CF92DF92EF9261
:10075000FF920F931F932F933F934F935F936F934A
:100760007F938F939F93AF93BF93CF93DF93EF9339
:10077000FF932DB73EB740910701440FE0E1F1E050
:10078000E40F40E0F41F219330832091070123956B
:100790002093070120910801239520930801A0913F
:1007A0002401B0912501FE91EE913E912E912DBF35
:1007B0003EBFA0932401B0932501089581E02FEF5F
:1007C0002093090120E020930A01582F209307016C
:1007D000852FE6E4F1E020910701220FE20F20E0EF
:1007E000F21F20813181422F432B59F0813099F043
:1007F00041E0241B40E0340B20833183422F432B04
:1008000051F4E2E3F1E020910701E20F20E0F21F52
:1008100081E0808308C0E2E3F1E020910701E20F6C
:1008200020E0F21F8081813019F0843009F012C07D
:10083000ECE3F1E020E080910701E80FF21F8081F6
:1008400020910901821730F480930901209107015A
:1008500020930A0120910701239530910801231765
:1008600008F4B4CF20910A0120930701E0E1F1E000
:1008700020910701220FE20F20E0F21F2081318139
:100880002DBF3EBFFF91EF91DF91CF91BF91AF910F
:100890009F918F917F916F915F914F913F912F9198
:1008A0001F910F91FF90EF90DF90CF90BF90AF908E
:1008B0009F908F907F906F905F904F903F902F9080
:1008C0001F900F900FBE0F907894A8952091600014
:1008D00028612093600026E42093600078940895B6
:1008E000112426E231E02093240130932501A091C8
:1008F0002401B09125012DB73EB72D933D93ED9383
:10090000FD93A0932401B093250183E062E80E9447
:1009100017038EE399E0969587956FEF0E94660323
:10092000A0912401B0912501FE91EE913E912E916E
:100930002DBF3EBFA0932401B0932501089524E06C
:100940002093530020930E0120917A002F7E209354
:100950007A0020915000206820935000209153008D
:100960002160209353008895EFCF0F920FB6F89433
:100970000F921F9211242F923F924F925F926F928B
:100980007F928F929F92AF92BF92CF92DF92EF921F
:10099000FF920F931F932F933F934F935F936F9308
:1009A0007F938F939F93AF93BF93CF93DF93EF93F7
:1009B000FF93E0E1F1E020910701220FE20F20E038
:1009C000F21F2DB73EB720833183E6E4F1E020919A
:1009D0000701220FE20F20E0F21F80839183E2E300
:1009E000F1E020910701E20F20E0F21F20E02083D8
:1009F00081E02FEF2093090120E020930A01582F76
:100A000020930701852FE6E4F1E020910701220FF2
:100A1000E20F20E0F21F20813181422F432B59F059
:100A2000813099F041E0241B40E0340B2083318376
:100A3000422F432B51F4E2E3F1E020910701E20F52
:100A400020E0F21F81E0808308C0E2E3F1E0209122
:100A50000701E20F20E0F21F8081813019F084301D
:100A600009F012C0ECE3F1E020E080910701E80F0B
:100A7000F21F808120910901821730F480930901CF
:100A80002091070120930A012091070123953091BD
:100A90000801231708F4B4CF20910A01209307011D
:100AA000E0E1F1E020910701220FE20F20E0F21FC8
:100AB000208131812DBF3EBFFF91EF91DF91CF911A
:100AC000BF91AF919F918F917F916F915F914F9166
:100AD0003F912F911F910F91FF90EF90DF90CF905A
:100AE000BF90AF909F908F907F906F905F904F904E
:100AF0003F902F901F900F900FBE0F907894089505
:100B0000F894E6E4F1E020910701220FE20F20E0E3
:100B1000F21F80839183E2E3F1E020910701E20F6D
:100B200020E0F21F24E02083789408950F920FB6FE
:100B3000F8940F921F9211242F923F924F925F923E
:100B40006F927F928F929F92AF92BF92CF92DF92DD
:100B5000EF92FF920F931F932F933F934F935F93C7
:100B60006F937F938F939F93AF93BF93CF93DF93B5
:100B7000EF93FF93E0E1F1E020910701220FE20FF4
:100B800020E0F21F2DB73EB720833183E2E3F1E08E
:100B900020910701E20F20E0F21F20E0208381E096
:100BA0002FEF2093090120E020930A01582F209372
:100BB0000701852FE6E4F1E020910701220FE20F03
:100BC00020E0F21F20813181422F432B59F08130E8
:100BD00099F041E0241B40E0340B20833183422F05
:100BE000432B51F4E2E3F1E020910701E20F20E012
:100BF000F21F81E0808308C0E2E3F1E02091070169
:100C0000E20F20E0F21F8081813019F0843009F07A
:100C100012C0ECE3F1E020E080910701E80FF21F41
:100C2000808120910901821730F48093090120917D
:100C3000070120930A0120910701239530910801B3
:100C4000231708F4B4CF20910A0120930701E0E1B3
:100C5000F1E020910701220FE20F20E0F21F208136
:100C600031812DBF3EBFFF91EF91DF91CF91BF91B9
:100C7000AF919F918F917F916F915F914F913F9134
:100C80002F911F910F91FF90EF90DF90CF90BF9029
:100C9000AF909F908F907F906F905F904F903F901C
:100CA0002F901F900F900FBE0F9078940895282FCB
:100CB000220FE6E4F1E0E20F20E0F21F8081918153
:100CC0000895282FE2E3F1E0E20F20E0F21F808197
:100CD0000895809108010895282FECE3F1E0E20FD8
:100CE00020E0F21F8081089580910901089580918C
:100CF0000A018A95089580910A01089580910D0155
:100D0000089522E02093C000292F2093C500282FAA
:100D10002093C40026E02093C20028E02093C10065
:100D200008952F938093C6002091C00025FFFCCF2B
:100D30002F9108958F93892F0E9491068F910E9481
:100D4000910608952F938093C6002091C00026FF3E
:100D5000FCCF2091C00020642093C0002F91089503
:100D60000E94A2068F93892F0E94A2068F91089558
:100D700080934A00862F0E94A206872F0E94A20617
:100D800080914A000E94A20680934A00892F0E9407
:100D9000A20680914A0008950E2F1F2F282FE82FBA
:100DA000F92F80810E94A206E02FF12F822F089553
:100DB0000E94CC06815090406150D1F70895F8947C
:020DC000FFCF63
:00000001FF
