:100000000C9445000C944F000C944F000C944F003E
:100010000C944F000C944F000C944F000C944F0024
:100020000C944F000C944F000C944F000C944F0014
:100030000C944F000C944F000C944F000C944F0004
:100040000C94F0010C944F000C944F000C944F0052
:100050000C944F000C944F000C944F000C944F00E4
:100060000C944F000C944F000000000000000000B2
:100070000000000000000000000000000000000080
:100080000000000000000000ABC111241FBECFEF34
:10009000D8E0DEBFCDBF0E9451000C9411050C9436
:1000A000000083E062E80E94A60284E990E060E03C
:1000B00040E00E94120389E391E061E040E00E9489
:1000C000120381E291E062E040E00E9412038DE0C1
:1000D00091E063E040E00E94120389EF90E064E069
:1000E00040E00E94120385EE90E065E040E00E944F
:1000F000120381ED90E066E040E00E9412038DEB78
:1001000090E067E040E00E94120389EA90E068E036
:1001100040E00E94120385E990E069E040E00E941F
:1001200012030E946603FFCFFFCF80E090E00E94A1
:10013000A90489E00E9405050E941E040E94D404BF
:100140000E9429040E94C4048CE290E00E9495035E
:10015000F0CF80E090E00E94A90488E00E940505AD
:100160000E941E040E94D4040E9429040E94C40418
:100170008AE290E00E949503F0CF80E090E00E9438
:10018000A90487E00E9405050E941E040E94D40471
:100190000E9429040E94C40486E290E00E94950314
:1001A000F0CF80E090E00E94A90486E00E9405055F
:1001B0000E941E040E94D4040E9429040E94C404C8
:1001C0008FE190E00E949503F0CF80E090E00E94E4
:1001D000A90485E00E9405050E941E040E94D40423
:1001E0000E9429040E94C4048DE190E00E949503BE
:1001F000F0CF80E090E00E94A90484E00E94050511
:100200000E941E040E94D4040E9429040E94C40477
:100210008AE190E00E949503F0CF80E090E00E9498
:10022000A90483E00E9405050E941E040E94D404D4
:100230000E9429040E94C40488E190E00E94950372
:10024000F0CF80E090E00E94A904579A8BB18058CB
:100250008BB982E00E9405050E941E040E94D4040E
:100260000E9429040E94C40481E190E00E94950349
:10027000EDCF1F9380E090E00E94A904569A10E40D
:100280008BB181278BB981E00E9405050E941E0475
:100290000E94D4040E9429040E94C4048AE090E0D1
:1002A0000E949503EDCF5F926F927F928F929F9203
:1002B000AF92BF92CF92DF92EF92FF920F931F9374
:1002C0008C010E94DA02622E832EC42EE52EF62EB9
:1002D000B72F20E030E040E050E060E070E0502ECA
:1002E000560CA1E0501608F0A0E0E12FE80DF1E077
:1002F000E11708F0F0E07A2E7E0EA1E07E1608F0FD
:10030000A0E0FA2BE1E0C21608F0E0E09F2E9C0C82
:10031000F1E09C1408F0F0E0EF2BF1E0E31608F0B8
:10032000F0E0AE2EAE0CE1E0AE1408F0E0E0FE2B03
:10033000E1E0F41608F0E0E0BF2EBF0CF1E0BF14DE
:1003400008F0F0E0EF2BF1E0B51708F0F0E0DE2E5A
:10035000DB0EE1E0DB1608F0E0E0FE2BA1E0861703
:1003600008F0A0E00F2F080FE1E0081708F0E0E028
:100370001A2F1E2B190F08C00E94DA02622E832E3C
:10038000C42EE52EF62EB72F9117B0F31917D1F41E
:10039000801790F30817B1F4BD1570F3DB1691F4D4
:1003A000FB1450F3BF1471F4EA1430F3AE1451F49B
:1003B000C91410F39C1431F48714F0F2781411F47A
:1003C0006514D0F21F910F91FF90EF90DF90CF90C6
:1003D000BF90AF909F908F907F906F905F900895A7
:1003E000299A0F920FB60F921F9211242F923F92CB
:1003F0004F925F926F927F928F929F92AF92BF9235
:10040000CF92DF92EF92FF920F931F932F933F9320
:100410004F935F936F937F938F939F93AF93BF930C
:10042000CF93DF93EF93FF93009106010093460073
:1004300001E010910001100F1093000100E01091F5
:100440000101101F1093010110910201101F109360
:10045000020110910301101F109303011091040178
:10046000101F109304010DB71EB720910701220F32
:10047000EAE0F1E0E20F20E0F21F01931083009127
:1004800008010A95202F220FE2E3F1E0E20F20E0BD
:10049000F21FA191B0812A2F2B2B41F01197B0832D
:1004A000A2932A2F2B2B11F00C945D02EEE1F1E0C8
:1004B000E00F20E0F21F21E02083003011F70091CF
:1004C00008010A95102FEEE1F1E0E10F10E0F10FC5
:1004D0001081113021F00030A1F70C9473020093C9
:1004E00007010C94760200E00093070100910701D8
:1004F000000FEAE0F1E0E00F00E0F01F0191108151
:100500000DBF1EBFFF91EF91DF91CF91BF91AF91D2
:100510009F918F917F916F915F914F913F912F911B
:100520001F910F91FF90EF90DF90CF90BF90AF9011
:100530009F908F907F906F905F904F903F902F9003
:100540001F900F900FBE0F9029981895F894219A3C
:10055000299800E00093000100930101009302013B
:100560000093030100930401009305010093060129
:1005700000930701009308010093090100934400D0
:100580000093450000936E000093350000934700F0
:100590000093480000934600082F00930501009344
:1005A0004500062F009306010093460001E00093EA
:1005B0006E000895209100013091010140910201E7
:1005C0005091030160910401A0910001B0910101DB
:1005D000E0910201F0910301009004012A1751F704
:1005E0003B1741F74E1731F75F1721F7601511F7E9
:1005F00070E080E090E008952FB6F894209100011B
:100600003091010140910201509103016091040178
:1006100070E080E090E02FBE089580E00FB707FD06
:1006200081E008952DB63EB64E2E5F2E062FE8E2ED
:10063000F1E0E00F00E0F01F408300910801039516
:1006400000930801062F039510E8019FE02DF12D7E
:100650003197112406E411E0E00FF11FEDBFFEBF5A
:100660008F939F9378940F920FB60F921F9211243D
:100670002F923F924F925F926F927F928F929F92B2
:10068000AF92BF92CF92DF92EF92FF920F931F93A0
:100690002F933F934F935F936F937F938F939F938A
:1006A000AF93BF93CF93DF93EF93FF930DB71EB735
:1006B000262F220FEAE0F1E0E20F20E0F21F019383
:1006C00010832DBE3EBEE42DF52D08954E2E5F2ED7
:1006D000EAE0F1E0019110810DBF1EBFFF91EF91A3
:1006E000DF91CF91BF91AF919F918F917F916F914A
:1006F0005F914F913F912F911F910F91FF90EF903C
:10070000DF90CF90BF90AF909F908F907F906F9031
:100710005F904F903F902F901F900F900FBE0F90C3
:10072000E42DF52D78940895FFCF00910701102F47
:10073000110FE2E3F1E0E10F10E0F11F81939083EC
:10074000EEE1F1E0E00F00E0F01F00E000830F9227
:100750000FB6F8940F921F9211242F923F924F924E
:100760005F926F927F928F929F92AF92BF92CF9241
:10077000DF92EF92FF920F931F932F933F934F932C
:100780005F936F937F938F939F93AF93BF93CF9319
:10079000DF93EF93FF930DB71EB720910701220F50
:1007A000EAE0F1E0E20F20E0F21F019310830091F4
:1007B00008010A95102FEEE1F1E0E10F10E0F10FD2
:1007C0001081113021F00030A1F70C94EB0300935D
:1007D00007010C94EE0300E000930701009107016C
:1007E000000FEAE0F1E0E00F00E0F01F019110815E
:1007F0000DBF1EBFFF91EF91DF91CF91BF91AF91E0
:100800009F918F917F916F915F914F913F912F9128
:100810001F910F91FF90EF90DF90CF90BF90AF901E
:100820009F908F907F906F905F904F903F902F9010
:100830001F900F900FBE0F907894089500910701BC
:10084000000FE2E3F1E0E00F00E0F01F8191908102
:10085000089500910701EEE1F1E0E00F00E0F01FE4
:10086000808108950F920FB6F8940F921F92112471
:100870002F923F924F925F926F927F928F929F92B0
:10088000AF92BF92CF92DF92EF92FF920F931F939E
:100890002F933F934F935F936F937F938F939F9388
:1008A000AF93BF93CF93DF93EF93FF930DB71EB733
:1008B00020910701220FEAE0F1E0E20F20E0F21FB1
:1008C00001931083009108010A95102FEEE1F1E0E9
:1008D000E10F10E0F10F1081113021F00030A1F78D
:1008E0000C947604009307010C94790400E00093C3
:1008F000070100910701000FEAE0F1E0E00F00E0DE
:10090000F01F019110810DBF1EBFFF91EF91DF918C
:10091000CF91BF91AF919F918F917F916F915F9197
:100920004F913F912F911F910F91FF90EF90DF908A
:10093000CF90BF90AF909F908F907F906F905F907F
:100940004F903F902F901F900F900FBE0F90789474
:10095000089502E00093C000092F0093C500082FFE
:100960000093C40006E00093C20008E00093C100B9
:10097000089500933E008093C6000091C00005FFDB
:10098000FCCF00913E00089500933E008093C60086
:100990000091C00006FFFCCF0091C00000640093EE
:1009A000C00000913E0008950E94C40480933E0060
:1009B000892F0E94C40480913E00089580934A00CC
:1009C000862F0E94C404872F0E94C40480914A008D
:1009D0000E94C40480934A00892F0E94C40480911D
:1009E0004A0008950E2F1F2F282FE82FF92F8081FE
:1009F0000E94C404E02FF12F822F08950E94F20478
:100A0000815090406150D1F70895082F64E573E557
:100A10008BE6902F0E94DE048DE09AE00E94D404C1
:060A20000895F894FFCFD9
:00000001FF
