:100000000C9445000C9462000C9462000C94620005
:100010000C9462000C9462000C9496070C9462009D
:100020000C9462000C9462000C9462000C946200C8
:100030000C9462000C9462000C9462000C946200B8
:100040000C9462000C9462000C9462000C946200A8
:100050000C9462000C9462000C9462000C94620098
:100060000C9462000C94620000000000000000008C
:10007000000000005BC726C025C024C000000000AF
:1000800000000000000000001DC011241FBECFEFC3
:10009000D8E0DEBFCDBF11E0A0E0B1E0E6EBF8E1D3
:1000A00002C005900D92A630B107D9F716E0A6E080
:1000B000B1E001C01D92AB38B107E1F70E946400C6
:1000C0000C94590C0C9400000E94E7098BEC91E011
:1000D00065E00E94DD0882E790E00E94CE0B0E945E
:1000E0005509FFCF089580E090E00E94FB0B89E066
:1000F0000E940B0C81E00E94D10B0E94140C81E045
:100100000E94DB0B805E0E940B0C89E00E94D10BE9
:100110000E94140C89E00E94DB0B805E0E940B0C95
:100120000E94F50B805F0E940B0C0E94EE0B0E9458
:100130000B0C87E090E00E942C0AD9CF80E090E081
:100140000E94FB0B88E00E940B0C81E00E94D10B07
:100150000E94140C81E00E94DB0B805E0E940B0C5D
:1001600088E00E94D10B0E94140C88E00E94DB0BF7
:10017000805E0E940B0C0E94F50B805F0E940B0CAE
:100180000E94EE0B0E940B0C87E090E00E942C0A6C
:10019000D9CF80E090E00E94FB0B87E00E940B0C1F
:1001A00081E00E94D10B0E94140C81E00E94DB0BC5
:1001B000805E0E940B0C87E00E94D10B0E94140C01
:1001C00087E00E94DB0B805E0E940B0C0E94F50B07
:1001D000805F0E940B0C0E94EE0B0E940B0C87E0CC
:1001E00090E00E942C0AD9CF80E090E00E94FB0BA7
:1001F00086E00E940B0C81E00E94D10B0E94140C3F
:1002000081E00E94DB0B805E0E940B0C86E00E9466
:10021000D10B0E94140C86E00E94DB0B805E0E94D2
:100220000B0C0E94F50B805F0E940B0C0E94EE0BE2
:100230000E940B0C87E090E00E942C0AD9CF80E04E
:1002400090E00E94FB0B85E00E940B0C81E00E9475
:10025000D10B0E94140C81E00E94DB0B805E0E9497
:100260000B0C85E00E94D10B0E94140C85E00E94CB
:10027000DB0B805E0E940B0C0E94F50B805F0E94DE
:100280000B0C0E94EE0B0E940B0C87E090E00E948A
:100290002C0AD9CF80E090E00E94FB0B84E00E9402
:1002A0000B0C81E00E94D10B0E94140C81E00E9493
:1002B000DB0B805E0E940B0C84E00E94D10B0E943D
:1002C000140C84E00E94DB0B805E0E940B0C0E94E9
:1002D000F50B805F0E940B0C0E94EE0B0E940B0C32
:1002E00087E090E00E942C0AD9CF80E090E00E9445
:1002F000FB0B83E00E940B0C81E00E94D10B0E945B
:10030000140C81E00E94DB0B805E0E940B0C83E0EA
:100310000E94D10B0E94140C83E00E94DB0B805ED4
:100320000E940B0C0E94F50B805F0E940B0C0E9438
:10033000EE0B0E940B0C87E090E00E942C0AD9CFB4
:1003400080E090E00E94FB0B82E00E940B0C81E0B9
:100350000E94D10B0E94140C81E00E94DB0B805E96
:100360000E940B0C82E00E94D10B0E94140C82E0D0
:100370000E94DB0B805E0E940B0C0E94F50B805FDD
:100380000E940B0C0E94EE0B0E940B0C87E090E089
:100390000E942C0AD9CF1F938AB1837F8AB98BB16F
:1003A0008C608BB9549A5C98399A419880E090E0BF
:1003B0000E94FB0B0E940E075C9A10E0812F0E94A6
:1003C0000B0C1F5F183CD1F75C9885E090E00E9411
:1003D0002C0AF2CF1092600691E090936106109281
:1003E0006206109263069093640682E0809365062D
:1003F00010926906109268062AE030E03093670692
:100400002093660684E180936A0630936C062093FD
:100410006B0610926E0610926D0690936F06109206
:1004200070061092710690937206109273061092E5
:1004300074068FE1809376068EE180937506809333
:100440007C068DE1809377068CE1809378068BE1C2
:10045000809379068AE180937A0689E180937B060E
:1004600088E180937D0610927F0610927E0610929E
:100470008006109281060895882311F0259A089528
:1004800025980895882311F0249A089524980895B2
:10049000882311F0239A089523980895882311F052
:1004A000229A089522980895882311F0389A089581
:1004B00038980895882311F02D9A08952D9808955D
:1004C000882311F02C9A08952C980895882311F010
:1004D0002B9A08952B980895882311F02A9A08954D
:1004E0002A980895882311F0409A08954098089515
:1004F000259A2498239A229A389A2A9A4098229ADE
:100500000895259A249A239A229A389A2D982C98FD
:100510002B982A9A4098089580E58CBD81E08DBD86
:100520001DBC08951CBC1DBC08950E94780280E586
:100530008CBD81E08DBD1DBC8093610608951CBCFF
:100540001DBC0E94810210926106089510928006DF
:10055000089510927F0610927E060895E1E8F6E075
:10056000119286E0EB38F807D9F7089510928006CB
:1005700010927F0610927E06E1E8F6E0119286E086
:10058000EB38F807D9F70895809380060895809195
:1005900080060895E0E6F6E0E80FF11D81A10895D8
:1005A000E8ECF0E03197F1F720917E0630917F067C
:1005B0002F5F3F4F30937F0620937E0640E08217E7
:1005C000930708F441E0842F089590E0809180061D
:1005D000882309F491E0892F0895362F20E02827F9
:1005E000392740E061E270E1C901880F991F37FFA8
:1005F00004C09C012627372701C09C014F5F48306B
:1006000099F7C90108950F931F93CF93DF93062F96
:10061000EC0120E030E010E006C0C90169910E94C1
:10062000ED029C011F5F1017C0F3C901DF91CF914C
:100630001F910F910895982F80918006882369F467
:100640009EBD90E02AE10BC0822F8A95F1F79F5F53
:10065000993C29F481E08093800680E008950DB4F0
:1006600007FEF2CF8EB50895DF92EF92FF920F93BF
:100670001F93CF93DF93182F062FF42EE52ED22E43
:1006800080918006882359F580916106882311F4B2
:100690000E9495022A98002389F4812F80620E948B
:1006A0001B038F2D9E2D9C01E90110E004C0899150
:1006B0000E941B031F5F1D15D0F310C0812F0E94E5
:1006C0001B038F2D9E2D9C01E90110E005C08FEFCB
:1006D0000E941B0389931F5F1D15C8F32A9ADF919F
:1006E000CF911F910F91FF90EF90DF900895FF92AF
:1006F0000F931F93F82E062F142F809180068823C6
:1007000041F58F2D61E042E656E021E00E9434037E
:1007100020916206112359F081E090E002C0880F19
:10072000991F0A95E2F7282B209362060BC081E0FF
:1007300090E002C0880F991F0A95E2F78095822306
:10074000809362068F2D60E042E656E021E00E9431
:1007500034031F910F91FF90089581EE60E042E60F
:1007600056E020E00E94340380918006882319F02F
:1007700082E080938006089582EE60E042E656E0D3
:1007800020E00E94340380918006882319F083E0E2
:10079000809380060895AC0180EA60E020E20E9428
:1007A000340380918006882319F084E080938006CA
:1007B0000895AC0181E661E020E20E94340380915B
:1007C0008006882319F085E0809380060895809143
:1007D0008006882311F080E008951092620687E178
:1007E00061E042E656E021E00E9434038091620617
:1007F00090E064E0969587956A95E1F78170089599
:1008000080918006882311F080E00895109262069E
:1008100087E161E042E656E021E00E9434038091E6
:100820006206809581700895CF93DF938091800652
:100830008823C9F410927F0610927E06C8ECD0E09F
:1008400014C0CE010197F1F780917E0690917F064A
:10085000019690937F0680937E068536910528F059
:1008600086E08093800680E005C00E94E70388232D
:1008700041F381E0DF91CF91089580918006882334
:1008800051F41092620660E042E656E021E00E94D8
:100890003403109260060E949F02089580916106C1
:1008A000882311F40E94950280918006882361F4C8
:1008B00010926206409860E042E656E021E00E9415
:1008C000340381E080936006089580916106882357
:1008D00011F40E94950280918006882371F483E7C9
:1008E00080936206409A80E060E042E656E021E0B4
:1008F0000E94340382E0809360060895809161062F
:10090000882311F40E94950280918006882379F44F
:1009100082E780936206409880E060E042E656E01D
:1009200021E00E943403409A83E08093600608959A
:10093000982F809180068823B1F4992319F40E949E
:100940003D040895913019F40E944E0408959230A8
:1009500019F40E9465040895933019F40E947E04EE
:1009600008950E946504089580918006882311F0FF
:1009700080E0089580E061E042E656E021E00E94D8
:1009800034038091620681FF08C080FF02C082E0CC
:1009900001C083E080936006089581E08093600643
:1009A0000895982F80918006882369F4892F9937BC
:1009B00008F088E78093620685E060E042E656E052
:1009C00021E00E943403089580918006882311F06D
:1009D00080E0089585E061E042E656E021E00E9473
:1009E0003403809162060895882321F486E065E04F
:1009F00041E005C0813049F486E065E040E00E94B6
:100A0000770386E063E040E008C086E065E040E010
:100A10000E94770386E063E041E00E947703089537
:100A200080918006882311F080E0089586E061E0DF
:100A300042E656E021E00E94340390916206892F3D
:100A400082958270809362069695969596959170A0
:100A5000982B90936306923019F4109262060AC0A4
:100A6000913019F49093620605C0992319F482E03D
:100A700080936206809162060895982F8091800687
:100A8000882371F5992321F486E062E040E00BC0F1
:100A9000913021F486E062E040E010C0923049F4E9
:100AA00086E062E041E00E94770386E061E040E09A
:100AB0000AC0933059F486E062E041E00E94770377
:100AC00086E061E041E00E947703089586E062E0FD
:100AD00041E00E94770386E061E041E00E947703F5
:100AE000089580918006882311F080E0089586E0C3
:100AF00061E042E656E021E00E9434038091620604
:100B000086958370809362060895809364060895A5
:100B10008091640608958093650608958091650626
:100B200008959093690680936806089580916806F9
:100B300090916906089590936706809366060895DC
:100B40008091660690916706089590936C06809355
:100B50006B06089580916B0690916C060895FF9244
:100B60000F931F938C01F62E109280060E94AD0306
:100B700080917D06F801E80FF11D80917306808356
:100B800080917B06F801E80FF11D80916F0680834C
:100B900080917A06F801E80FF11D8091720680833A
:100BA00080917906F801E80FF11D80916406808339
:100BB00080917806F801E80FF11D80916506808329
:100BC00080917706F801E80FF11DF082C80160916D
:100BD0007C060E94030320917506F801E20FF11DC7
:100BE000908390917606F801E90FF11D8083C8018A
:100BF0000E94CB0383E00E9498040E9414041F917A
:100C00000F91FF900895CF92DF92EF92FF920F9392
:100C10001F93CF93DF93EC01109280061092690628
:100C20001092680678ECC72ED12C3CC00E940004BC
:100C3000882361F1CE010E94D90380917506FE01DF
:100C4000E80FF11DF080EE2480917606FE01E80F9A
:100C5000F11D008110E00E291F29CE0160917C0654
:100C60000E94030308171907E9F480917B06FE012F
:100C7000E80FF11D80818093700680917D06C80F7A
:100C8000D11D88818093730681E019C0C601019748
:100C9000F1F7809168069091690601969093690634
:100CA00080936806209168063091690680916606F7
:100CB000909167062817390708F4B8CF80E0DF91D4
:100CC000CF911F910F91FF90EF90DF90CF900895FB
:100CD000EF92FF920F931F93DF93CF93CDB7DEB7C1
:100CE000A0970FB6F894DEBF0FBECDBFE0906606AA
:100CF000F090670625E030E03093670620936606A3
:100D00000E94AF05809172068823A1F08E010F5FCB
:100D10001F4FC8010E940306882361F08091780666
:100D2000080F111D90916406F8018081981711F445
:100D300081E001C080E0F0926706E0926606A0962E
:100D40000FB6F894DEBF0FBECDBFCF91DF911F91DC
:100D50000F91FF90EF9008950F931F93DF93CF9320
:100D6000CDB7DEB7A0970FB6F894DEBF0FBECDBFEC
:100D70008C018EE79EE5AEE7B0E089839A83AB8372
:100D8000BC83FE0135968CE1DF011D928A95E9F75F
:100D9000C8010E9403068823A9F180917A06F80110
:100DA000E80FF11D808180FF2DC080917806F80149
:100DB000E80FF11D909164068081981719F588EE6F
:100DC00093E00197F1F780917906F801E80FF11DA2
:100DD00080818093650680917B06F801E80FF11D04
:100DE000808180936F0680917D06080F111DF801A8
:100DF000808180937306CE01019663E00E94AF0567
:100E000081E001C080E0A0960FB6F894DEBF0FBE6F
:100E1000CDBFCF91DF911F910F910895FF920F9356
:100E20001F930E94EA010E94950202E616E01092CA
:100E3000620680E060E0A80121E00E943403109285
:100E4000620681E060E0A80121E00E94340383E0B3
:100E50008093620682E060E0A80121E00E943403F2
:100E600081E08093620683E060E0A80121E00E94B7
:100E700034031092620684E060E0A80121E00E9441
:100E8000340382E08093620685E060E0A80121E0FF
:100E90000E94340386E28093620686E060E0A80147
:100EA00021E00E94340380E78093620687E060E0DF
:100EB000A80121E00E943403E0E2FE2EF0926206D7
:100EC00081E160E0A80121E00E943403F092620613
:100ED00082E160E0A80121E00E94340310926206E2
:100EE0008CE160E0A80121E00E94340310926206C8
:100EF0008DE160E0A80121E00E94340300E011E0F0
:100F000080E160E0A80125E00E9434038AE060E00F
:100F1000A80125E00E94340384E00E94F40480E0EC
:100F20000E9498041F910F91FF9008955D9A20915F
:100F300053002E7F209353000F920FB60F921F92F3
:100F400011242F923F924F925F926F927F928F92D5
:100F50009F92AF92BF92CF92DF92EF92FF920F9348
:100F60001F932F933F934F935F936F937F938F9331
:100F70009F93AF93BF93CF93DF93EF93FF93E6E1FC
:100F8000F1E020910D01220FE20F20E0F21F2DB7BA
:100F90003EB72083318320910C012093460020919D
:100FA000060123952093060130E020910701231FBD
:100FB0002093070120910801231F2093080120910D
:100FC0000901231F2093090120910A01231F209367
:100FD0000A0180E02FEF20930F0120E02093100101
:100FE000582F20930D01852FECE4F1E020910D01A5
:100FF000220FE20F20E0F21F20813181422F432B8C
:1010000059F0813099F041E0241B40E0340B2083FB
:101010003183422F432B51F4E8E3F1E020910D019D
:10102000E20F20E0F21F81E0808308C0E8E3F1E0F6
:1010300020910D01E20F20E0F21F8081813019F034
:10104000843009F012C0E2E4F1E020E080910D016B
:10105000E80FF21F808120910F01821730F48093F6
:101060000F0120910D012093100120910D01239576
:1010700030910E01231708F4B4CF20911001209372
:101080000D0120910D01222329F0209112012395B9
:1010900020931201209111012395243640F020E085
:1010A000309112013093130130E0309312012093FC
:1010B0001101E6E1F1E020910D01220FE20F20E0A5
:1010C000F21F208131812DBF3EBFFF91EF91DF9153
:1010D000CF91BF91AF919F918F917F916F915F91D0
:1010E0004F913F912F911F910F91FF90EF90DF90C3
:1010F000CF90BF90AF909F908F907F906F905F90B8
:101100004F903F902F901F900F900FBE0F905D98C3
:10111000209160002064209360001895F8945D98F9
:10112000559AA0912A01B0912B012DB73EB72D936E
:101130003D93ED93FD93A0932A01B0932B0120E002
:1011400020930601209307012093080120930901B1
:1011500020930A0120930B0120930C0120930D0191
:1011600020930E0120930F01209310012093110171
:101170002093120120931301A89520915400207010
:10118000209354002091600028612093600020E0AB
:101190002093600080930B0160930C01A0912A01C1
:1011A000B0912B01FE91EE913E912E912DBF3EBF4D
:1011B000A0932A01B0932B010895A0912A01B09128
:1011C0002B012DB73EB72D933D93ED93FD93A09347
:1011D0002A01B0932B01E2E4F1E020910D01E20F2E
:1011E00020E0F21F6083E8E3F1E020910D01E20FBF
:1011F00020E0F21F21E0208320910D01239530E8AB
:10120000239FE02DF12D3197112420E631E0E20FEC
:10121000F31FEDBFFEBF8F939F930F920FB60F92F8
:101220001F9211242F923F924F925F926F927F9262
:101230008F929F92AF92BF92CF92DF92EF92FF92E6
:101240000F931F932F933F934F935F936F937F93CE
:101250008F939F93AF93BF93CF93DF93EF93FF93BE
:101260002DB73EB740910D01440FE6E1F1E0E40FE8
:1012700040E0F41F2193308320910D0123952093AA
:101280000D0120910E01239520930E01A0912A01BA
:10129000B0912B01FE91EE913E912E912DBF3EBF5C
:1012A000A0932A01B0932B01089581E02FEF2093A2
:1012B0000F0120E020931001582F20930D01852F5E
:1012C000ECE4F1E020910D01220FE20F20E0F21F8B
:1012D00020813181422F432B59F0813099F041E038
:1012E000241B40E0340B20833183422F432B51F4E5
:1012F000E8E3F1E020910D01E20F20E0F21F81E030
:10130000808308C0E8E3F1E020910D01E20F20E0C6
:10131000F21F8081813019F0843009F012C0E2E4BC
:10132000F1E020E080910D01E80FF21F8081209113
:101330000F01821730F480930F0120910D0120934B
:10134000100120910D01239530910E01231708F40F
:10135000B4CF2091100120930D01E6E1F1E020913E
:101360000D01220FE20F20E0F21F208131812DBFFD
:101370003EBFFF91EF91DF91CF91BF91AF919F91D0
:101380008F917F916F915F914F913F912F911F911D
:101390000F91FF90EF90DF90CF90BF90AF909F9014
:1013A0008F907F906F905F904F903F902F901F9005
:1013B0000F900FBE0F907894A8952091600028613F
:1013C0002093600026E4209360007894089511240F
:1013D0002CE231E020932A0130932B01A0912A01C5
:1013E000B0912B012DB73EB72D933D93ED93FD9317
:1013F000A0932A01B0932B0183E062E80E948E083B
:101400008CE294E1969587956FEF0E94DD08A0919C
:101410002A01B0912B01FE91EE913E912E912DBFAC
:101420003EBFA0932A01B0932B01089524E020939E
:1014300053002093140120917A002F7E20937A008C
:10144000209150002068209350002091530021608B
:10145000209353008895EFCF0F920FB6F8940F9218
:101460001F9211242F923F924F925F926F927F9220
:101470008F929F92AF92BF92CF92DF92EF92FF92A4
:101480000F931F932F933F934F935F936F937F938C
:101490008F939F93AF93BF93CF93DF93EF93FF937C
:1014A000E6E1F1E020910D01220FE20F20E0F21FB2
:1014B0002DB73EB720833183ECE4F1E020910D019C
:1014C000220FE20F20E0F21F80839183E8E3F1E036
:1014D00020910D01E20F20E0F21F20E0208381E047
:1014E0002FEF20930F0120E020931001582F20931D
:1014F0000D01852FECE4F1E020910D01220FE20FA8
:1015000020E0F21F20813181422F432B59F081309E
:1015100099F041E0241B40E0340B20833183422FBB
:10152000432B51F4E8E3F1E020910D01E20F20E0BC
:10153000F21F81E0808308C0E8E3F1E020910D0113
:10154000E20F20E0F21F8081813019F0843009F031
:1015500012C0E2E4F1E020E080910D01E80FF21FFB
:10156000808120910F01821730F480930F01209128
:101570000D012093100120910D01239530910E0152
:10158000231708F4B4CF2091100120930D01E6E158
:10159000F1E020910D01220FE20F20E0F21F2081E7
:1015A00031812DBF3EBFFF91EF91DF91CF91BF9170
:1015B000AF919F918F917F916F915F914F913F91EB
:1015C0002F911F910F91FF90EF90DF90CF90BF90E0
:1015D000AF909F908F907F906F905F904F903F90D3
:1015E0002F901F900F900FBE0F9078940895F8944D
:1015F000ECE4F1E020910D01220FE20F20E0F21F58
:1016000080839183E8E3F1E020910D01E20F20E077
:10161000F21F24E02083789408950F920FB6F89477
:101620000F921F9211242F923F924F925F926F92CE
:101630007F928F929F92AF92BF92CF92DF92EF9262
:10164000FF920F931F932F933F934F935F936F934B
:101650007F938F939F93AF93BF93CF93DF93EF933A
:10166000FF93E6E1F1E020910D01220FE20F20E06F
:10167000F21F2DB73EB720833183E8E3F1E02091DC
:101680000D01E20F20E0F21F20E0208381E02FEF28
:1016900020930F0120E020931001582F20930D017B
:1016A000852FECE4F1E020910D01220FE20F20E004
:1016B000F21F20813181422F432B59F0813099F064
:1016C00041E0241B40E0340B20833183422F432B25
:1016D00051F4E8E3F1E020910D01E20F20E0F21F68
:1016E00081E0808308C0E8E3F1E020910D01E20F82
:1016F00020E0F21F8081813019F0843009F012C09F
:10170000E2E4F1E020E080910D01E80FF21F80811A
:1017100020910F01821730F480930F0120910D0169
:101720002093100120910D01239530910E01231774
:1017300008F4B4CF2091100120930D01E6E1F1E00F
:1017400020910D01220FE20F20E0F21F2081318154
:101750002DBF3EBFFF91EF91DF91CF91BF91AF9130
:101760009F918F917F916F915F914F913F912F91B9
:101770001F910F91FF90EF90DF90CF90BF90AF90AF
:101780009F908F907F906F905F904F903F902F90A1
:101790001F900F900FBE0F9078940895FC0109954B
:1017A0000895282F220FECE4F1E0E20F20E0F21F71
:1017B000808191810895282FE8E3F1E0E20F20E095
:1017C000F21F8081089580910E010895282FE2E490
:1017D000F1E0E20F20E0F21F8081089580910F0177
:1017E0000895809110018A950895809110010895BF
:1017F00080911301089522E02093C000292F2093A7
:10180000C500282F2093C40026E02093C20028E0C2
:101810002093C10008952F938093C6002091C000AB
:1018200025FFFCCF2F9108958F93892F0E940B0CD9
:101830008F910E940B0C08952F938093C6002091E6
:10184000C00026FFFCCF2091C00020642093C00080
:101850002F9108950E941C0C8F93892F0E941C0CBD
:101860008F91089580934A00862F0E941C0C872F29
:101870000E941C0C80914A000E941C0C80934A001C
:10188000892F0E941C0C80914A0008950E2F1F2F53
:10189000282FE82FF92F80810E941C0CE02FF12FB8
:1018A000822F08950E94460C815090406150D1F7DC
:0618B0000895F894FFCF3B
:0618B60041434B303000FD
:00000001FF
