:100000000C9445000C944F000C944F000C944F003E
:100010000C944F000C944F000C944F000C944F0024
:100020000C944F000C944F000C944F000C944F0014
:100030000C944F000C944F000C944F000C944F0004
:100040000C94C3000C944F000C944F000C944F0080
:100050000C944F000C944F000C944F000C944F00E4
:100060000C944F000C944F000000000000000000B2
:100070000000000000000000000000000000000080
:1000800000000000000000007EC011241FBECFEF62
:10009000D8E0DEBFCDBF0E9451000C9487020C94C3
:1000A00000000E940A028BEB90E064E00E9477015E
:1000B0008DEA90E060E00E9477018FE990E061E0D6
:1000C0000E94770187E990E062E00E9477018FE863
:1000D00090E063E00E9477010E94CE01FFCF80E0B4
:1000E00090E00E94310288E00E944A02FCCF80E04A
:1000F00090E00E94310287E00E944A02FCCF80E03B
:1001000090E00E94310286E00E944A02FCCF80E02B
:1001100090E00E94310285E00E944A02FCCF80E01C
:1001200090E00E94310284E00E944A02FCCF80E00D
:1001300090E00E94310283E00E944A02FCCF1F93AC
:1001400080E090E00E943102569A10E48BB1812742
:100150008BB982E00E944A02F9CF1F9380E090E0C1
:100160000E943102559A10E28BB181278BB981E050
:100170000E944A02F9CF80E090E00E94310280E0C4
:100180000E944A02FCCF299A0F920FB60F921F923B
:1001900011242F923F924F925F926F927F928F9293
:1001A0009F92AF92BF92CF92DF92EF92FF920F9306
:1001B0001F932F933F934F935F936F937F938F93EF
:1001C0009F93AF93BF93CF93DF93EF93FF932090D1
:1001D00007013DB64EB6022D000FEAE0F1E0E00F58
:1001E000F11D31924082009106010093460000917A
:1001F000000111E0010F0093000100910101011DB8
:100200000093010100910201011D00930201009180
:100210000301011D0093030100910401011D0093DE
:10022000040100910701039510910801011710F0D6
:10023000011BFCCF0093070100910701000FEAE0CA
:10024000F1E0E00FF11D019110810DBF1EBFFF9184
:10025000EF91DF91CF91BF91AF919F918F917F915E
:100260006F915F914F913F912F911F910F91FF904F
:10027000EF90DF90CF90BF90AF909F908F907F9046
:100280006F905F904F903F902F901F900F900FBEF8
:100290000F9029981895F894219A299800E0112434
:1002A00000930001009301010093020100930301F8
:1002B00000930401009305010093060100930701D8
:1002C0000093080100930901009344000093450046
:1002D00000936E00009335000093470000934800A0
:1002E00000934600809305016093060108952DB6A2
:1002F0003EB64E2E5F2E00910701E8E2F1E0E00FDE
:10030000F11D6083102F139520E8129FE02DF12D31
:100310003197112416E421E0E10FF21FEDBFFEBF7B
:100320008F939F930F920FB60F921F9211242F92CB
:100330003F924F925F926F927F928F929F92AF9275
:10034000BF92CF92DF92EF92FF920F931F932F9362
:100350003F934F935F936F937F938F939F93AF934D
:10036000BF93CF93DF93EF93FF931DB72EB7302F3B
:10037000330FEAE0F1E0E30FF11D119320831091B8
:10038000070113951093070110910801139510931D
:1003900008012DBE3EBEE42DF52D08954E2E5F2E94
:1003A00000E000930701EAE0F1E0019110810DBF48
:1003B0001EBFFF91EF91DF91CF91BF91AF919F91C0
:1003C0008F917F916F915F914F913F912F911F91ED
:1003D0000F91FF90EF90DF90CF90BF90AF909F90E4
:1003E0008F907F906F905F904F903F902F901F90D5
:1003F0000F900FBE0F90E42DF52D00910501109187
:100400000601009345001093460001E000936E0042
:10041000789408950DB71EB70F931F93EF93FF9332
:1004200083E062E80E944B0184E494E0969587950E
:100430006FEF0E947701FF91EF911F910F910DBF18
:100440001EBF089590E080E00E94310283E20E9486
:100450004A02FCCF082FE8E2F1E0E00FF11D8081B5
:10046000089502E00093C000092F0093C500082FF3
:100470000093C40006E00093C20008E00093C100AE
:1004800008950F938093C6000091C00005FFFCCF34
:100490000F9108950F938093C6000091C00006FF4E
:1004A000FCCF0091C00000640093C0000F9108953C
:1004B0000E944A028F93892F0E944A028F910895C9
:1004C00080934A00862F0E944A02872F0E944A0288
:1004D00080914A000E944A0280934A00892F0E941C
:1004E0004A0280914A0008950E2F1F2F282FE82FCF
:1004F000F92F80810E944A02E02FF12F822F089568
:100500000E947402815090406150D1F70895F89490
:02051000FFCF1B
:00000001FF
