:100000000C9445000C944F000C944F000C944F003E
:100010000C944F000C944F000C944F000C944F0024
:100020000C944F000C944F000C944F000C944F0014
:100030000C944F000C944F000C944F000C944F0004
:100040000C9421020C944F000C944F000C944F0020
:100050000C944F000C944F000C944F000C944F00E4
:100060000C944F000C944F000000000000000000B2
:100070000000000000000000000000000000000080
:100080000000000000000000DCC111241FBECFEF03
:10009000D8E0DEBFCDBF0E9451000C9445050C9402
:1000A000000083E062E80E94D70284E990E060E00B
:1000B00040E00E943C0385E990E061E040E00E945E
:1000C0003C0384E491E062E040E00E943C038BE268
:1000D00091E063E040E00E943C0382E191E064E053
:1000E00040E00E943C0389EF90E065E040E00E9420
:1000F0003C0380EE90E066E040E00E943C0387EC29
:1001000090E067E040E00E943C038EEA90E068E007
:1001100040E00E943C0384E691E069E040E00E94F8
:100120003C030E949003FFCFFFCF0F931F93CF9309
:10013000DF9380E090E00E94DD04C4E0D1E089E03C
:100140000E94F8048E0101501040CE010E94080563
:100150008CE290E00E94C903E801F1CF0F931F9356
:10016000CF93DF9380E090E00E94DD04C0EFD0E009
:1001700088E00E94F8048E0101501040CE010E94D8
:1001800008058AE290E00E94C903E801F1CF0F93CD
:100190001F93CF93DF9380E090E00E94DD04CCEDCD
:1001A000D0E087E00E94F8048E0101501040CE019B
:1001B0000E94080586E290E00E94C903E801F1CFA1
:1001C0000F931F93CF93DF9380E090E00E94DD04B4
:1001D000C8ECD0E086E00E94F8048E010150104087
:1001E000CE010E9408058FE190E00E94C903E8015A
:1001F000F1CF0F931F93CF93DF9380E090E00E94A5
:10020000DD04C4EBD0E085E00E94F8048E010150CB
:100210001040CE010E9408058DE190E00E94C903C4
:10022000E801F1CF0F931F93CF93DF9380E090E02D
:100230000E94DD04C0EAD0E084E00E94F8048E0150
:1002400001501040CE010E9408058AE190E00E9412
:10025000C903E801F1CF0F931F93CF93DF9380E0A1
:1002600090E00E94DD04CCE8D0E083E00E94F80436
:100270008E0101501040CE010E94080588E190E0F7
:100280000E94C903E801F1CFFF920F931F93CF9310
:10029000DF9380E090E00E94DD04569AC8E7D0E04A
:1002A00080E4F82E8BB18F258BB982E00E94F80490
:1002B0008E0101501040CE010E94080581E190E0BE
:1002C0000E94C903E801EECFFF920F931F93CF93D3
:1002D000DF9380E090E00E94DD04559AC4E6D0E010
:1002E00090E2F92E8BB18F258BB981E00E94F80442
:1002F0008E0101501040CE010E9408058AE090E076
:100300000E94C903E801EECF5F926F927F928F92B5
:100310009F92AF92BF92CF92DF92EF92FF920F9394
:100320001F938C010E940403622E832EC42EE52E9F
:10033000F62EB72F20E030E040E050E060E070E0C3
:10034000502E560CA1E0501608F0A0E0E12FE80D69
:10035000F1E0E11708F0F0E07A2E7E0EA1E07E16C3
:1003600008F0A0E0FA2BE1E0C21608F0E0E09F2ED2
:100370009C0CF1E09C1408F0F0E0EF2BF1E0E316A8
:1003800008F0F0E0AE2EAE0CE1E0AE1408F0E0E0D4
:10039000FE2BE1E0F41608F0E0E0BF2EBF0CF1E028
:1003A000BF1408F0F0E0EF2BF1E0B51708F0F0E033
:1003B000DE2EDB0EE1E0DB1608F0E0E0FE2BA1E034
:1003C000861708F0A0E00F2F080FE1E0081708F0EB
:1003D000E0E01A2F1E2B190F08C00E940403622EA2
:1003E000832EC42EE52EF62EB72F9117B0F31917D2
:1003F000D1F4801790F30817B1F4BD1570F3DB1634
:1004000091F4FB1450F3BF1471F4EA1430F3AE14FA
:1004100051F4C91410F39C1431F48714F0F27814D9
:1004200011F46514D0F21F910F91FF90EF90DF90BF
:10043000CF90BF90AF909F908F907F906F905F9084
:100440000895299A0F920FB60F921F9211242F929E
:100450003F924F925F926F927F928F929F92AF9254
:10046000BF92CF92DF92EF92FF920F931F932F9341
:100470003F934F935F936F937F938F939F93AF932C
:10048000BF93CF93DF93EF93FF9300910601009307
:10049000460001E010910001100F1093000100E0F0
:1004A00010910101101F1093010110910201101F02
:1004B0001093020110910301101F1093030110917A
:1004C0000401101F109304010DB71EB720910701FE
:1004D000220FEAE0F1E0E20F20E0F21F0193108327
:1004E000009108010A95202F220FE2E3F1E0E20FCC
:1004F00020E0F21FA191B0812A2F2B2B41F0119700
:10050000B083A2932A2F2B2B11F00C948E02EEE1D4
:10051000F1E0E00F20E0F21F21E02083003011F72E
:10052000009108010A95102FEEE1F1E0E10F10E0D3
:10053000F10F1081113021F00030A1F70C94A402CA
:10054000009307010C94A70200E0009307010091BB
:100550000701000FEAE0F1E0E00F00E0F01F019179
:1005600010810DBF1EBFFF91EF91DF91CF91BF9121
:10057000AF919F918F917F916F915F914F913F913B
:100580002F911F910F91FF90EF90DF90CF90BF9030
:10059000AF909F908F907F906F905F904F903F9023
:1005A0002F901F900F900FBE0F9029981895F894D8
:1005B000219A299800E00093000100930101009323
:1005C00002010093030100930401009305010093CD
:1005D00006010093070100930801009309010093AD
:1005E00044000093450000936E0000933500009393
:1005F00047000093480000934600082F0093050130
:10060000062F009306010895209100013091010109
:10061000409102015091030160910401A0910001F9
:10062000B0910101E0910201F091030100900401F9
:100630002A1751F73B1741F74E1731F75F1721F78C
:10064000601511F770E080E090E008952FB6F894FF
:10065000209100013091010140910201509103016C
:100660006091040170E080E090E02FBE089580E08A
:100670000FB707FD81E008952DB63EB64E2E5F2ED2
:10068000062FE8E2F1E0E00F00E0F01F4083009168
:100690000801039500930801062F039510E8019FB8
:1006A000E02DF12D3197112406E411E0E00FF11F48
:1006B000EDBFFEBF8F939F9378940F920FB60F926A
:1006C0001F9211242F923F924F925F926F927F92CE
:1006D0008F929F92AF92BF92CF92DF92EF92FF9252
:1006E0000F931F932F933F934F935F936F937F933A
:1006F0008F939F93AF93BF93CF93DF93EF93FF932A
:100700000DB71EB7262F220FEAE0F1E0E20F20E03E
:10071000F21F019310832DBE3EBEE42DF52D0895EA
:100720004E2E5F2EEAE0F1E0019110810DBF1EBF59
:10073000FF91EF91DF91CF91BF91AF919F918F91F9
:100740007F916F915F914F913F912F911F910F91E9
:10075000FF90EF90DF90CF90BF90AF909F908F90E1
:100760007F906F905F904F903F902F901F900F90D1
:100770000FBE0F90E42DF52D00910501109106019B
:10078000009345001093460001E000936E00089529
:10079000FFCF0F920FB6F8940F921F9211242F9251
:1007A0003F924F925F926F927F928F929F92AF9201
:1007B000BF92CF92DF92EF92FF920F931F932F93EE
:1007C0003F934F935F936F937F938F939F93AF93D9
:1007D000BF93CF93DF93EF93FF930DB71EB7209195
:1007E0000701220FEAE0F1E0E20F20E0F21F01939F
:1007F000108300910701102F110FE2E3F1E0E10FE8
:1008000010E0F11F81939083EEE1F1E0E00F00E052
:10081000F01F00E00083009108010A95102FEEE11F
:10082000F1E0E10F10E0F10F1081113021F0003004
:10083000A1F70C941F04009307010C94220400E01C
:100840000093070100910701000FEAE0F1E0E00FDB
:1008500000E0F01F019110810DBF1EBFFF91EF91CD
:10086000DF91CF91BF91AF919F918F917F916F91C8
:100870005F914F913F912F911F910F91FF90EF90BA
:10088000DF90CF90BF90AF909F908F907F906F90B0
:100890005F904F903F902F901F900F900FBE0F9042
:1008A0007894089500910701000FE2E3F1E0E00F72
:1008B00000E0F01F81919081089500910701EEE121
:1008C000F1E0E00F00E0F01F808108950F920FB675
:1008D000F8940F921F9211242F923F924F925F92A1
:1008E0006F927F928F929F92AF92BF92CF92DF9240
:1008F000EF92FF920F931F932F933F934F935F932A
:100900006F937F938F939F93AF93BF93CF93DF9317
:10091000EF93FF930DB71EB720910701220FEAE076
:10092000F1E0E20F20E0F21F019310830091080133
:100930000A95102FEEE1F1E0E10F10E0F10F1081C8
:10094000113021F00030A1F70C94AA0400930701A4
:100950000C94AD0400E00093070100910701000F23
:10096000EAE0F1E0E00F00E0F01F019110810DBF1F
:100970001EBFFF91EF91DF91CF91BF91AF919F91FA
:100980008F917F916F915F914F913F912F911F9127
:100990000F91FF90EF90DF90CF90BF90AF909F901E
:1009A0008F907F906F905F904F903F902F901F900F
:1009B0000F900FBE0F907894089502E00093C0004E
:1009C000092F0093C500082F0093C40006E0009390
:1009D000C20008E00093C100089500933E00809398
:1009E000C6000091C00005FFFCCF00913E000895B5
:1009F00000933E008093C6000091C00006FFFCCF2C
:100A00000091C00000640093C00000913E00089572
:100A10000E94F80480933E00892F0E94F804809180
:100A20003E00089580934A00862F0E94F804872F85
:100A30000E94F80480914A000E94F80480934A00C2
:100A4000892F0E94F80480914A0008950E2F1F2FCD
:100A5000282FE82FF92F80810E94F804E02FF12F32
:100A6000822F08950E942605815090406150D1F751
:100A70000895082F64E573E58BE6902F0E94120518
:0E0A80008DE09AE00E9408050895F894FFCFDB
:00000001FF
